:020000040800F2
:10000000C85B0024BD020008CF540008434F00081D
:10001000CD5400087F040008B16C00080000000007
:1000200000000000000000000000000081580008EF
:100030003908000800000000D15400088358000867
:10004000D7020008D7020008D7020008D70200082C
:10005000D7020008D7020008D7020008D70200081C
:10006000D7020008D7020008D7020008D70200080C
:10007000D7020008E5040008D7020008D7020008EC
:10008000D7020008D7020008D7020008D7020008EC
:10009000D7020008D7020008D7020008D7020008DC
:1000A000D7020008D7020008D7020008D7020008CC
:1000B000D7020008D7020008D7020008D7020008BC
:1000C000D7020008D7020008D7020008D7020008AC
:1000D000D7020008D7020008D7020008D70200089C
:1000E000D7020008D702000800000000D70200086D
:1000F000D7020008D7020008D7020008D70200087C
:10010000D7020008D7020008D7020008D70200086B
:10011000D7020008D7020008D7020008D70200085B
:10012000F1040008D7020008D7020008D70200082F
:10013000D70200083D080008D7020008D7020008CF
:1001400000000000000000000000000000000000AF
:10015000D7020008D7020008D7020008D70200081B
:10016000D7020008D7020008D7020008D70200080B
:10017000D7020008D7020008D702000800000000DC
:10018000D7020008D7020008D7020008D7020008EB
:10019000D7020008D7020008D7020008D7020008DB
:1001A000D7020008D7020008D7020008D7020008CB
:1001B000D7020008D7020008D7020008D7020008BB
:1001C000D7020008D7020008D7020008D7020008AB
:1001D000D7020008D7020008D7020008D70200089B
:1001E000D7020008D7020008D7020008D70200088B
:1001F000D7020008D7020008D7020008D70200087B
:10020000D7020008D7020008D7020008D70200086A
:10021000D7020008D7020008D7020008D70200085A
:10022000D7020008D7020008D7020008000000002B
:10023000D7020008D702000800000000D70200081B
:10024000D7020008D7020008D7020008D70200082A
:10025000D7020008D7020008D7020008D70200081A
:10026000D7020008D7020008D7020008D70200080A
:10027000D7020008D7020008D702000800000000DB
:10028000D7020008D7020008D702000800000000CB
:1002900000000000D7020008DFF80CD000F0B2F830
:1002A00000480047A5930008C85B002430BF72B621
:1002B000704762B6704780F30888704706488047E9
:1002C00006480047FEE7FEE7FEE7FEE7FEE7FEE73B
:1002D000FEE7FEE7FEE7FEE7355900089902000851
:1002E0002DE9F05F0546002092469B46884606466B
:1002F000814640241BE0284641464746224600F0FE
:1003000070F853465A46C01A914110D31146184608
:10031000224600F057F82D1A67EB01084F46224697
:100320000120002100F04EF817EB00094E41201E7D
:10033000A4F10104DFDC484631462A464346BDE8C5
:10034000F09F40EA01039B0703D009E008C9121F90
:1003500008C0042AFAD203E011F8013B00F8013B7F
:10036000521EF9D27047D2B201E000F8012B491EAB
:10037000FBD270470022F6E710B513460A46044642
:100380001946FFF7F0FF204610BD421C10F8011B74
:100390000029FBD1801A704730B50446002003467F
:1003A00000E05B1C934203D2E05CCD5C401BF8D0C4
:1003B00030BD034611F8012B00F8012B002AF9D1BA
:1003C00018467047202A04DB203A00FA02F1002088
:1003D00070479140C2F1200320FA03F31943904083
:1003E0007047202A04DB203A21FA02F000217047EE
:1003F00021FA02F3D040C2F120029140084319468D
:1004000070470000064C074D06E0E06840F001032D
:1004100094E8070098471034AC42F6D3FFF740FF4A
:10042000F40401081405010870B58C1810F8015B7C
:1004300015F0070301D110F8013B2A1106D110F87D
:10044000012B03E010F8016B01F8016B5B1EF9D181
:100450002B0705D40023521E0DD401F8013BFAE707
:1004600010F8013BCB1A921C03E013F8015B01F872
:10047000015B521EF9D5A142D8D3002070BDFEE722
:1004800010B5846B204600F091FE0120207110BD54
:1004900010B5846B204600F0EDFD0120207110BDE9
:1004A00010B5846B206940F004002061204600F004
:1004B0007FFE0120207110BD10B5846B206940F0D3
:1004C00004002061204600F0D7FD0120207110BDFE
:1004D00010B5806B00F06BFE10BD10B5806B00F0A6
:1004E000CAFD10BD014801F0B7B800001402002495
:1004F000014801F0B1B800008C020024294A0168CB
:1005000091423AD0274A1832914236D0254A3032A9
:10051000914232D0234A483291422ED0214A603251
:1005200091422AD01F4A7832914226D01D4A9032F9
:10053000914222D01B4AA83291421ED01A4A9142BF
:100540001BD0194A1832914217D0174A30329142C3
:1005500013D0154A483291420FD0134A603291426B
:100560000BD0114A7832914207D00F4A9032914213
:1005700003D00D4AA832914211D1CAB21823103AC1
:10058000B2FBF3F26FF30901032A02F00703074AF3
:10059000D25CC26500D9091D81650846704721F00B
:1005A000FF01F9E710000240100402403402010884
:1005B00030B5224A012301689142CAB21BD01F4CB8
:1005C0001434A14217D01D4C2834A14213D01B4C27
:1005D0003C34A1420FD0194C5034A1420BD0174CDF
:1005E0006434A14207D0154C7834A14203D0134C97
:1005F0008C34A1420CD11421114C083AB2FBF1F118
:100600000F4A803201F01F0504EB8101AB4010E07E
:100610000C4D1824103A0D44B2FBF4F1A82D00D86B
:100620000831094A01F01F0402EB8101064AA34088
:100630008032603080E80E0030BD0000085402585F
:1006400000580258F0FBFDBF0008024010B50279C7
:10065000531E072B2DD8174C0168A1421BD0154CF7
:100660001434A14217D0134C2834A14213D0114C9A
:100670003C34A1420FD00F4C5034A1420BD00D4C52
:100680006434A14207D00B4C7834A14203D0094C0A
:100690008C34A14203D10849074C443102E0074998
:1006A000064C443104EB8202C0E91B210121994030
:1006B000416710BD08540258FC580258FC0802401B
:1006C00010B583694FF0C074826A0146002053B1AF
:1006D000B3F5005F15D072B1012A0CD0022A0AD0FE
:1006E000032A09D104E01AB1012A06D0022A03D153
:1006F000C96AC90100D5012010BDC96AA142FAD05A
:1007000010BD002AF7D0012AF2D0022AF3D0032A22
:10071000F3D010BD70B5D0E91964856D7460C46EF6
:1007200014B1D0E91C466660404E0468B4423AD029
:100730003E4E1836B44236D03C4E3036B44232D0FB
:100740003A4E4836B4422ED0384E6036B4422AD0A3
:10075000364E7836B44226D0344E9036B44222D04B
:10076000324EA836B4421ED0314EB4421BD0304E69
:100770001836B44217D02E4E3036B44213D02C4E19
:100780004836B4420FD02A4E6036B4420BD0284EC1
:100790007836B44207D0264E9036B44203D0244E69
:1007A000A836B44214D190F85C603F2406F01F06CE
:1007B000B440AC600468256825F4802525602DE0F0
:1007C0009A600068C16070BD99600068C26070BDC9
:1007D000184EB4421BD0174E1436B44217D0154EE3
:1007E0002836B44213D0134E3C36B4420FD0114ECB
:1007F0005036B4420BD00F4E6436B44207D00D4E83
:100800007836B44203D00B4E8C36B442DFD190F828
:100810005C60012406F01F06B4406C6004686360ED
:100820008368402B0368CFD1CAE700001000024064
:10083000100402400854025870470000014801F0BB
:10084000A4BE00003403002470B5A2B00646002404
:100850004FF4C36001258DF80F5002238DF81D4021
:1008600069038DF80E5009948DF81F400D902020DB
:100870008DF804508DF8325042028DF86050069188
:100880004FF040518DF8384002948DF861408DF85A
:100890001C408DF828408DF862408DF80C400B9478
:1008A0008DF81E500F948DF8115012948DF8404021
:1008B0008DF831408DF8124014948DF85640179001
:1008C000304616938DF8205005928DF854408DF8DF
:1008D00030408DF81050009169468DF80D408DF82C
:1008E000554011948DF84C5000F01CFA1B9568058A
:1008F0008DF871404FF406718DF8685019948DF899
:1009000080408DF870401F908DF878401D903046E3
:100910008DF88140219119A900F0AAF922B070BD8B
:100920000020704702F042BC024810B502F0E8F81F
:10093000002010BD3403002413460A460146044833
:1009400010B502F09FF8002801D04FF0FF3010BD25
:100950003403002413460A460146044810B502F049
:10096000D1F9002801D04FF0FF3010BD340300242E
:100970002DE9F047836A00F1180592468C6800273C
:100980001E4655F82320D2F80CC0BCF1000F73DBD3
:1009900091F800C05FEA4C7C43D5D2F80CC0D1F886
:1009A00024806FF30F0C4CEA080CC2F80CC0D2F88C
:1009B0000CC04CF4803CC2F80CC0D0F800C0DCF88D
:1009C000608048F48018CCF8608091F800C05FEA3D
:1009D0000C7C26D5B1F82C80D2F808C068F31F4CE7
:1009E000C2F808C0D2F80CC04CF4003CC2F80CC0ED
:1009F000D2F80CC0D1F830802CF4402C4CEA080C12
:100A0000C2F80CC0D0F800C0DCF8648048F480184C
:100A1000CCF864800068D0F850C04CF0806CC0F80E
:100A200050C00878C0060BD59068D1F818C06FF395
:100A30000D0040EA0C009060D06840F08060D0600B
:100A4000087810F0140F18D0D0685B1C042B40F00D
:100A50008040D060D06840F00040D06000D31B1FC1
:100A6000012755F82320D068002806DA55F826001B
:100A7000C16821F00041C16099E020681060906871
:100A8000D4F804C06FF30D0040EA0C009060DFF86A
:100A9000DCC17F1CA0684FF0000950B1044600681B
:100AA0005060D2F80880A08808EA0C0848EA0040A4
:100AB00004E0C2F80490906800EA0C0090600878A6
:100AC000C006D06812D5B1F8208020F4F00040EACA
:100AD000C840D060D068D1F81C806FF3110040EAA4
:100AE0000800D060D06840F480201BE0D1F804807A
:100AF0006FF30E0040EA0800D0600878C00707D006
:100B0000D068D1F8148020F4403040EA0800D0606A
:100B10000878800607D5D068D1F8108020F04060B2
:100B200040EA0800D0600878400707D59068D1F8FF
:100B3000288020F4404040EA08009060D06840F0EF
:100B40000050D060D06820F08040D060D06840F085
:100B50000040D0600878800774D5D068D1F80C8048
:100B600020F0607040EA08006BE0D0685B1C042B4A
:100B700020F08050D06000D31B1F55F82320D06890
:100B800020F00050D060D068002813DA55F8261005
:100B900000200AE0CA68761C042E22F00042CA60D7
:100BA00000D3361F401C55F82610B842F2D302205D
:100BB000BDE8F087A468206810609068D4F80480CD
:100BC0006FF30D0040EA08009060A0687F1C50B1F0
:100BD000044600685060D2F80880A08808EA0C0833
:100BE00048EA004004E0C2F80490906800EA0C0073
:100BF00090600878C006D0680AD5D1F81C806FF3E1
:100C0000110040EA0800D060D06840F4802010E075
:100C1000D1F804806FF30E0040EA0800D060087835
:100C2000C00707D0D068D1F8148020F4403040EAE3
:100C30000800D060D06840F00040D060D06820F05C
:100C40008040D060A06800288FD19068BAF1000F72
:100C500002D040F0004001E020F000409060D068F9
:100C600040F08050D06000202B61A1E7FFFF00C062
:100C7000F0B5026847F6020E274E4DF2010702F565
:100C80008052264DD1F800C01368254C23EA0E038C
:100C900043EA0C0313600B79026891F80CE002F54B
:100CA0008052D1F808C01B0343EACE3343EA0C0359
:100CB000D2F804C02CEA070C4CEA030CC2F804C0BA
:100CC00002684F7B02F580520B6A43EA0747D2F86D
:100CD000003133403B43C2F8003102680B7D02F51E
:100CE000805291F81DC00F69D2F804611B0143EADC
:100CF0000C332E403B431E43C2F8046100680B7F57
:100D000000F580508A69D0F8081142EAC372214088
:100D10001143C0F80811F0BD00C0FEFFEFEFC0FFA7
:100D2000FFFFC07FF0B50B790C7B0F688A68DB068C
:100D30004D7B43EAC4533A438E7B1A43CF7B91F8F1
:100D400010C042EA855242EA4652BCF1000F42EA24
:100D500007537CD000224C7C002C43EAC24278D05E
:100D600000238E7C0D7F42EA43428F7FD1E9053418
:100D700042EA06424E7F1A43224342EA0532002FDE
:100D800042EAC62466D00022CD7F91F8203044EAA2
:100D90008222002B42EA45227ED0002504684B6A5D
:100DA00042EA052291F82870464D1A43CE6A23681C
:100DB00042EA071232432B401343236091F83C2050
:100DC00091F8383091F8305091F83140520642EAAB
:100DD000036291F8326042EA854242EA4444BEB37B
:100DE00000220368384E4F6B44EA02425C683A4383
:100DF00040F20F15344014435C60036891F8406082
:100E00004C6CDA6844EA0624AA432243DA6091F87B
:100E100054300A6D91F84C4042EA4302ECB300248E
:100E20000368B1F848504FF60D76E7011C6F47EAAA
:100E300005452A43344014431C67026891F8563034
:100E400091F8555052F8904F43EA450303E02BE0E8
:100E500032E02BE02CE024F003041C431460026811
:100E60008C6DD2F8003D23F072032343C2F8003D9D
:100E700091F86020CC6D1AB35FF00003026891F81E
:100E8000615091F8621044EA8310D2F8303D2C0191
:100E900044EAC101084301E00CE00FE023F07B01CC
:100EA0000143C2F8301DF0BD012254E7012358E789
:100EB000012269E7012571E7012292E70124AFE7EA
:100EC0000123DBE7838004000080F8C07047000046
:100ED00030B50424124BCD0744EA00200BD0DC6867
:100EE00024F4E664DC60DC6814430443DC60DC6802
:100EF00044F08004DC60890711D5D3F80C1121F48B
:100F0000E661C3F80C11D3F80C1111430143C3F887
:100F10000C11D3F80C0140F08000C3F80C0130BD77
:100F200000200052CB431E4A9B0722D0CB0740F043
:100F300008000AD0D36823F03003D360D36803439A
:100F4000D360D36843F08003D360890710D5D2F80B
:100F50000C1121F03001C2F80C11D2F80C11014330
:100F6000C2F80C11D2F80C0140F08000C2F80C015C
:100F70007047D16821F03001D160D2F80C1121F016
:100F80003001C2F80C11D1680143D160D2F80C11C4
:100F90000143C2F80C11906940F010009061704755
:100FA000002000522DE9F0470E46804602F0FEF880
:100FB000012E814601D0294D00E00425DFF8A0A0D4
:100FC000284C05EA0A0777B3D4F8100125EA000097
:100FD0004000D0B1012E2BD02349D4F81001084095
:100FE00040F00040410027D020498A6910EA0A0FEA
:100FF00042EA00028A6101D1606103E020F0004012
:10100000C4F814010120BDE8F087B8F1FF3FDAD041
:1010100002F0CCF8A0EB0901414502D8B8F1000F6D
:10102000D1D10320EFE7FFE7206925EA0000D0E7F0
:101030000F4920690840D5E7012E4FF4803007D0D2
:10104000D4F81011C90301D5C4F814010020DAE75F
:101050002169C903FAD56061F8E700000400008047
:10106000F0FF10E0002000520000EE9790050024F1
:101070000000EE1770477047704700002DE9F047F9
:101080000446407900270E4601280BD04FF0010896
:1010900084F8058002212171306802F010050428CF
:1010A00003D047E00220BDE8F0874FF0030922BBE0
:1010B00002F07CF8DFF8F0A0074604E002F076F8D2
:1010C000C01B012811D82068406B10EA0A0FF5D127
:1010D000012001F09FF82168B069086417E000BFA3
:1010E00002F064F8C01B012807D9216941F008010A
:1010F000216184F804900320D5E72068406B002824
:10110000EEDB012001F086F82168B069486440F206
:10111000FF332068F269AB40816CAA4099431143C8
:1011200081642068FF22336AAA40C16CAB409143BE
:101130001943C1643069012808D122681F237069EE
:10114000916BAB40A84099430843906322680727FE
:10115000B1684FF480433068D6F80CC00843D16BB7
:10116000AF4040EA0C0040F6FE7CAB40A840B943DB
:10117000C0270843D0630CFA05FC2068AF40016823
:10118000994301602268002370681168A84021EA31
:101190000C010843106020680168B943016084F8BD
:1011A0000480184663717EE7008000207047704716
:1011B000704770B5040003D02079002510B105E018
:1011C000012070BD2046657100F008F802212171F0
:1011D000012025612071002070BD00002DE9F0473D
:1011E00086B0074614216846FFF7C4F82A493868D4
:1011F00088424DD12948016841F0005101600068E2
:1012000000F00050059025480838016841F00101C0
:101210000160006830210026029600F00100059070
:101220000320CDE900101E48694601F0BBFE1D4DAC
:101230004FF4807A4FF040081B4B4FF480692846EA
:101240004324C5E90286C5E90496C5E9066A2E620B
:101250006E62C5E9003400F077FD08B1FFF736FE95
:10126000104C4423BD607834AF63104A2046C4E973
:101270000286C4E90496C4E9066A26626662C4E985
:10128000002300F061FD08B1FFF720FEFC60A763BA
:1012900006B0BDE8F087000000740040E844025842
:1012A00000000258140200244000024010040240D2
:1012B00008B50029016800910068104404D014307A
:1012C00000900360002008BD0830F9E72DE9F041E7
:1012D00004460D461746069800226179012920D060
:1012E0000126667102212171F5B1E168DFF8D4C0F1
:1012F000C1F83CC0D4F80CC03349CCF84010D4F845
:101300000CC03249CCF84C102168D1F800C04CF028
:10131000805CC1F800C090B3042834D0082837D1CD
:1013200034E00220BDE8F081A168DFF8A4C0C1F874
:101330003CC0D4F808C02749CCF84010D4F808C005
:101340002549CCF84C102168D1F800C04CF4805CE1
:10135000C1F800C020B1042805D0082808D105E054
:101360002268083204E022680C3201E02268103260
:101370002068016841F400510160A0680EE0FFE7B9
:101380002268143204E02268183201E022681C321C
:101390002068016841F000510160E068394600F0C2
:1013A0003DFE0021617120B1216941F004012161FC
:1013B000B8E7216805F010030A689E4032430A60CE
:1013C000B0E7000091040008DB040008B90400083D
:1013D00081040008D1040008A104000870B5044687
:1013E0000125002901F0100021684FF4805202FA13
:1013F00000F20E6805FA00F326EA02060E60206885
:10140000016821EA030101600BD0E06800F014F8E4
:1014100021680A6822F000520A6050B1042121714B
:1014200070BDA06800F008F821680A6822F4005234
:10143000F2E7257170BD00002DE9F84F044601F078
:10144000B5FE002C009008D094F83500022805D095
:1014500080216165002084F8340093E0784E784F55
:101460007749183620683037DFF8D881DFF8D8910F
:101470008842DFF8D8A1DFF8D8B12ED0B0422CD006
:10148000B8422AD0404528D0484526D0504524D0DF
:10149000584522D06E4A183290421ED06D4A904272
:1014A0001BD06C4A1832904217D06A4A30329042B0
:1014B00013D0684A483290420FD0664A6032904258
:1014C0000BD0644A7832904207D0624A9032904200
:1014D00003D0604AA832904209D1026822F01E026D
:1014E00002602068426922F08002426103E00268E3
:1014F00022F00E020260206E25680268504922F434
:10150000807202602068884228D0B04226D0B8425B
:1015100024D0404522D0484520D050451ED05845C3
:101520001CD04B491831884218D04A49884215D0FE
:1015300048491831884211D04649303188420DD08F
:1015400044494831884209D042496031884205D037
:1015500040497831884201D03E499031016821F0FC
:101560000101016011E000BF01F020FE0099401A66
:1015700005280AD9202262650020032184F834005E
:1015800084F835100120BDE8F88F2868C007EBD13A
:101590002B4A0121206890422ED0B0422CD0B84274
:1015A0002AD0404528D0484526D0504524D058451B
:1015B00022D0274A183290421ED0264A90421BD091
:1015C000244A1832904217D0224A3032904213D027
:1015D000204A483290420FD01E4A603290420BD0CF
:1015E0001C4A7832904207D01A4A9032904203D077
:1015F000184AA832904208D194F85C303F22A06D7E
:1016000003F01F039A40826007E094F85C20A06D0D
:1016100002F01F0201FA02F24260D4E919024260AC
:10162000E06E30B1026822F480720260D4E91C02DC
:101630004260002084F8340084F83510A3E70000ED
:101640001000024058000240700002408800024032
:10165000A0000240100402402DE9FC5F0446FA4E4F
:101660000020DFF8E48300904FF41652F74808F1A9
:101670001808A56DDFF8D0A3DFF8CCB301680AF134
:10168000300A20680BF1480BB1FBF2F1B042019136
:101690002F68D5F800C0DFF8B89336D041468842AD
:1016A00033D0504531D058452FD0E749603188427A
:1016B0002BD0E5497831884227D0E34990318842E0
:1016C00023D0E149A83188421FD048451DD0E049C8
:1016D0001831884219D0DE493031884215D0DC4AB1
:1016E0004832904211D0DA49603188420DD0DFF89B
:1016F00060E30EF1780E704507D0D54B90339842D9
:1017000003D0D349A83188427ED194F85C200821C7
:1017100002F01F0201FA02F23A424BD0B04233D03B
:10172000404531D050452FD058452DD0C64A603263
:10173000904229D0C44A7832904225D0C24A903291
:10174000904221D0C04AA83290421DD048451BD0BB
:10175000BF4A1832904217D0BD4A3032904213D05F
:10176000BB4A483290420FD0B94A603290420BD007
:10177000B74A7832904207D0B54A9032904203D0AF
:10178000B34AA832904203D1026802F0040202E098
:10179000026802F008026AB1026822F004020260E4
:1017A00094F85C0000F01F008140A960606D40F07B
:1017B0000100606594F85C00012100F01F00814089
:1017C000394241D02068B04235D0404533D05045F1
:1017D00031D058452FD09C4A603290422BD09A4A43
:1017E0007832904227D0984A9032904223D0964A3D
:1017F000A83290421FD048451DD0954A18329042D9
:1018000019D0934A303200E0B2E1904213D0904AAE
:10181000483290420FD08E4A603290420BD08C4AB0
:101820007832904207D08A4A9032904203D0884A58
:10183000A83290427ED1406910F0800F04D0A96098
:10184000606D40F00200606594F85C00042100F0D7
:101850001F00814039423FD02068B04233D040451C
:1018600031D050452FD058452DD0774A6032904224
:1018700029D0754A7832904225D0734A90329042EE
:1018800021D0714AA83290421DD048451BD0704AE1
:101890001832904217D06E4A3032904213D06C4AC0
:1018A000483290420FD06A4A603290420BD0684A68
:1018B0007832904207D0664A9032904203D0644A10
:1018C000A83290424FD1006810F0020F04D0A960F6
:1018D000606D40F00400606594F85C00102100F039
:1018E0001F008140394259D02068B04235D0404570
:1018F00033D0504531D058452FD0534A60329042B2
:101900002BD0514A7832904227D04F4A90329042A1
:1019100023D04D4AA83290421FD048451DD04C4A92
:101920001832904219D04A4A3032904215D0484A73
:10193000483200E015E090420FD0454A60329042B4
:101940000BD0434A7832904207D0414A90329042BD
:1019500003D03F4AA832904207D1006800F0080047
:1019600006E0006870E70068B6E7006800F0040071
:10197000A0B1A96020680168490304D5006800038C
:1019800008D5A16C07E00168C90503D4016821F0FE
:1019900008010160216C09B12046884794F85C0079
:1019A000202100F01F008140394278D02068B042E9
:1019B00033D0404531D050452FD058452DD0224A04
:1019C0006032904229D0204A7832904225D01E4A77
:1019D0009032904221D01C4AA83290421DD04845F6
:1019E0001BD01B4A1832904217D0194A303290420D
:1019F00013D0174A483290420FD0154A60329042B5
:101A00000BD0134A7832904207D0114A903290425C
:101A100003D00F4AA832904203D1006800F01000B2
:101A200002E0006800F00200A0B3A96094F835005D
:101A30000428206801680DD049037DD500680003A3
:101A400029D4616C28E000001000024088000024C6
:101A50001004024021F0160101602068416921F064
:101A600080014161206C08B9A06C20B12068016838
:101A700021F00801016094F85C303F21002203F05E
:101A80001F0301209940A96084F8342084F83500B0
:101A9000216D66E003E0E16B09B120468847606D87
:101AA00000287DD0606DC0075AD02068042184F8DA
:101AB0003510B0422BD0404529D0504527D058454D
:101AC00025D09E49884222D09C49183188421ED098
:101AD0009A49303188421AD098494831884216D004
:101AE000484514D09649884211D09549183188420A
:101AF0000DD093493031884209D09149483188420C
:101B000005D08F496031884201D08D497831016814
:101B100021F00101016020680099019A491C00919F
:101B2000914202D80168C907F6D1002184F8341027
:101B30000068C00711D000E001E003200EE001685A
:101B4000C905A8D403680022012123F01003036013
:101B500084F8342084F835109DE7012084F835009E
:101B6000E16C00291CD002B02046BDE8F05F0847B8
:101B7000744988421DD073491431884219D0714983
:101B80002831884215D06F493C31884211D06D49C7
:101B9000503188420DD06B496431884209D000E051
:101BA00086E068497831884203D066498C318842A2
:101BB0007ED194F85C800427016808F01F0807FABA
:101BC00008F717EA0C0F009746D04F0744D5009846
:101BD0000F04686003D5C8033CD4A16CC1E7880634
:101BE00038D42068B0422DD054494839884229D091
:101BF000504527D0584525D05049884222D04F49DA
:101C0000183188421ED04D49303188421AD04B4994
:101C10004831884216D0484514D04949884211D0ED
:101C20004749183188420DD090420BD04449483181
:101C3000884207D0704505D0984203D04049903182
:101C4000884203D1016821F0080102E0016821F017
:101C500004010160216C84E7022707FA08F717EAFC
:101C60000C0F00974ED08F074CD500980F0468607A
:101C700003D5C80344D4616C73E7880640D4206858
:101C8000B0422FD02D49483988422BD0504529D019
:101C9000584527D02949884224D0284918318842FC
:101CA00020D02649303188421CD02449483100E0F8
:101CB00041E0884216D0484514D02149884211D0CD
:101CC0001F49183188420DD090420BD01C49483131
:101CD000884207D0704505D0984203D0184990310A
:101CE000884203D1016821F0140102E0016821F06B
:101CF0000A010160002184F83410012084F83500C5
:101D0000E16B2EE7082202FA08F212EA0C0F12D059
:101D1000090710D5016821F00E01016094F85C10EC
:101D20000120002201F01F0100FA01F169606065E5
:101D300084F8342012E7BDE8FC9F000070000240E8
:101D400028040240085402582DE9F05F044601F0CF
:101D50002DFA002C074676D0A5494FF00106A44A7B
:101D60004FF0000520681831DFF88C82DFF88C9284
:101D70009042A04ADFF888A2DFF888B2DFF888E254
:101D80002CD088422AD0904228D0404526D04845C1
:101D900024D0504522D0584520D070451ED09B4BB2
:101DA00098421BD0994B1833984217D0974B303339
:101DB000984213D0954B483398420FD0934B6033E1
:101DC00098420BD0914B7833984207D08F4B903389
:101DD000984203D08D4BA833984275D1DFF810C2DA
:101DE000022384F8345084F83530604526D0884288
:101DF00024D0904222D0404520D048451ED05045A6
:101E00001CD058451AD0704518D08049884215D04A
:101E10007E491831884211D07C49303188420DD03A
:101E20007A494831884209D078496031884205D0E2
:101E300076497831884201D074499031016821F0A7
:101E40000101016007E0B4E001F0B0F9C01B052812
:101E500001D92021A9E020680068C007F4D104F16D
:101E600008002168D4E9053C894685C80968104303
:101E7000D4E907281F43636A3843654F40EA0C00E2
:101E80001043394040EA0800042B40EA010003D126
:101E9000D4E90B1211430843C9F800002068676AAF
:101EA0004069042F20F0070047EA00070DD1D4E96C
:101EB0000A01074349B12046FEF702FC28B1402041
:101EC000606584F8356074E00CE020684761204666
:101ED000FEF714FB94F85C203F2102F01F029140B2
:101EE000816055E04B4988421BD04A4914318842F1
:101EF00017D048492831884213D046493C3188429E
:101F00000FD04449503188420BD042496431884255
:101F100007D040497831884203D03E498C3188420D
:101F200042D13D4B022184F8345084F835100168C9
:101F3000A26801EA0309402A31D0802A31D0002268
:101F4000D4E90378D4E9053142EAD70242EAD80855
:101F5000304AD4E9077C48EAD30848EAD10141EA8B
:101F6000D701524241EA1C11142341EA09010160E0
:101F700020681044B0FBF3F08000E0652046FEF7D7
:101F8000BDFA94F85C1001F01F0106FA01F14160FE
:101F90002046FEF70DFBA06880280DD00DE0102232
:101FA000CEE74FF48042CBE740216165032084F8FF
:101FB00035000120BDE8F09F6560216E2079086042
:101FC000D4E9190141606068401E072808D82046FE
:101FD000FEF73CFBE06E0560D4E91C01416002E0C5
:101FE000E56625676567656584F835600020E1E78B
:101FF00010000240400002405800024070000240C1
:1020000088000240A0000240B800024010040240D4
:102010003F8010FE085402580F00FEFF2DE9F84FD4
:1020200004008C464FF00000009013D094F8340068
:10203000012811D094F835500120002184F8340093
:10204000012D0BD084F83410C20200906265009814
:10205000BDE8F88F0120FBE70220F9E7644D022676
:10206000206884F83560A842624D6165624E634F16
:10207000DFF88C81DFF88C91DFF88CA1DFF88CB170
:1020800026D0A84224D0B04222D0B84220D0404529
:102090001ED048451CD050451AD0584518D05C4930
:1020A000884215D05A491831884211D058493031E8
:1020B00088420DD056494831884209D05449603190
:1020C000884205D052497831884201D05049903138
:1020D000016821F00101016061462046FEF71AFB0C
:1020E0004349206888422CD0A8422AD0B04228D048
:1020F000B84226D0404524D0484522D0504520D073
:1021000058451ED0424A90421BD0414A1832904254
:1021100017D03F4A3032904213D03D4A4832904265
:102120000FD03B4A603290420BD0394A783290420D
:1021300007D0374A9032904203D0354AA8329042B5
:102140000CD1026822F01E0242F016020260206CDE
:1021500088B12068026842F008020BE0026822F0B1
:102160000E0242F00A020260206C20B12068026870
:1021700042F004020260206E0268D20303D50268B6
:1021800042F480720260E06E18B1026842F480721C
:1021900002602068884226D0A84224D0B04222D0D3
:1021A000B84220D040451ED048451CD050451AD0DA
:1021B000584518D01649884215D01549183188421B
:1021C00011D01349303188420DD01149483188422D
:1021D00009D00F496031884205D00D4978318842D5
:1021E00001D00B499031016841F0010101602EE7F7
:1021F0001000024028000240400002405800024007
:102200007000024088000240A0000240B800024076
:102210001004024070B5044600F0C8FF0546601C7B
:1022200002D004480078044400F0C0FF401BA042E4
:10223000FAD370BD7C00002400F12C02F0B5D2E985
:10224000053452F8231024B1D56905B1641C00256A
:1022500023E00120F0BD0F694FF080760F60CE6063
:102260004E692EB14E698E60CE6846F00076CE6023
:10227000CE6846F00046CE60166A1EB1CE6846F0C3
:102280008046CE609669761EAE4205D95B1C042B53
:1022900000D31B1F52F823106D1CA542DBD300682E
:1022A000002300F58050C0F8281118469361F0BD56
:1022B000704710B500EB8104E46A0AB1042903D326
:1022C0000121C165084610BD22602261E06840F02E
:1022D0008070E0602BB1A3606361E06840F0007043
:1022E000E060E06840F00040E060002010BD704712
:1022F00000297DD00268126802F00C02CA620268EE
:102300001268C2F3001281F828200268126802F0F5
:1023100060024A620268126842F30022521C81F88D
:10232000202002681268C2F34022CA77026812684D
:1023300042F38022521C8A7702681268C2F3C022DC
:102340004A7702681268C2F300320A77026812689C
:1023500002F400528A610268126802F480424A6103
:1023600002681268C2F300428A740268126842F37B
:102370004042521C4A740268126842F3C042521C26
:102380000A7402681268C2F30052CA7302681268C3
:10239000C2F340528A7302681268C2F380524A73D1
:1023A00002681268C2F3C0520A730268126802F02F
:1023B000E0628A6002681268C2F3C0620A71026851
:1023C000126802F0E0420A6002685268C2F30D022D
:1023D0004A630268526842F30042521C81F832207C
:1023E00002685268C2F3404281F83120026800E07E
:1023F00062E05268C2F3804281F83020026852687D
:10240000C2F3006281F8382002685268C2F3446265
:10241000CA630268D268C2F3002281F840200268D1
:10242000D26802F00F024A640268126FC2F34002DF
:1024300081F854200268126F42F3C012521C81F8D6
:102440004C200268126F02F070020A650268126F77
:10245000120C8A640268D2F8902002F0010281F81E
:1024600056200268D2F89020C2F3400281F855202D
:102470000268D2F8002D02F072028A650268D2F872
:10248000302D02F02302CA650268D2F8302DC2F363
:10249000C00281F862200268D2F8302DC2F3001227
:1024A00081F861200068D0F8300D40F38010401CA6
:1024B00081F860000020704701207047F0B50C00E3
:1024C000016C00F12C0605464FF0000756F821007C
:1024D00002D0B2691AB109E00120E86539E0284666
:1024E00000F0EAF9A0B3716956F82100002215E066
:1024F000036923606B696360436923B1A46843691E
:1025000023606B696360C068491C0429C0F30E072F
:1025100000D3091FA468521C56F82100B3695B1E42
:102520009342E5D8C168026922606A69C1F30E016D
:10253000C91B8A4201D3616008E0436943B162600C
:10254000A268406910606869081A50600020F0BDF8
:10255000FFE70120FBE770B500F12C040D46D4E93C
:10256000056111B900F0A8F968B1A069761E304480
:10257000042800D3001F54F82000C068C0F30E00E8
:102580002860002070BD012070BD70B50446006851
:1025900000F58050D0F8601149060DD5D0F834010F
:1025A000400609D5204600F09FFA206848F2400115
:1025B00000F58050C0F86011206800F58050D0F818
:1025C0006011C9070DD0D0F83401C00709D02046EA
:1025D00000F096FB206848F2010100F58050C0F839
:1025E0006011E026206800F58050D0F860114904A1
:1025F00025D5D0F83411490421D5E16D41F0080109
:10260000E165D0F86011C9040DD5D0F8601141F230
:10261000021211402166D0F8341121F44041C0F873
:102620003411666508E0D0F860214FF4CD4102F422
:10263000CD422266C0F860112046FFF739FE2068BF
:102640000025D0F8B010C1F34131032907D1D0F8EB
:10265000B80060666665204600F095F965662068FA
:10266000D0F8B010C90608D5D0F8C00000F060005E
:10267000A066204600F004FAA5662068D0F8B010E5
:10268000890608D5D0F8C00000F00F00E0662046AB
:10269000FFF72DFEE5664FF0B040D0F8A8104902D4
:1026A00006D54FF48001C0F8A810204600F029FBA1
:1026B00070BD0000F8B5040002D0606D10B104E0F8
:1026C0000120F8BD204600F05FF9232060657048C6
:1026D000016841F002010160006800F00200009012
:1026E000207A08B14FF4000002F09AF8206800F553
:1026F0008050016841F00101016000F057FDE026C3
:1027000005464FF4FA7706E000F050FD401BB84252
:1027100001D9042049E0206800F580500068C00716
:10272000F2D12068D0F8000220F4706501F046FD77
:10273000584A594902448A4202D245F4007516E0CB
:10274000564A574902448A4202D245F440750EE087
:102750005449554A0144914209D35449544A0844C2
:10276000904202D245F4807501E045F4806520680E
:10277000C0F8005201F022FD4E4A2168B0FBF2F091
:10278000401EC1F8DC002046FEF75EF8206800F528
:102790008050D0F8001121F4E01141F40021C0F87C
:1027A00000116169880703D00120E065666587E74D
:1027B000206847F6FE7300F58050D0F808219A4350
:1027C00042EA4101C0F8081100210846E26800EB26
:1027D000400504EB800302EBC5021160516091607B
:1027E000D160401C04289A61F0D3A16203232068C1
:1027F00000F58050C0F82C312068E26800F5805068
:10280000C0F814212068E26800F58050C0F820214B
:102810005FF00002206902EB420604EB820500EB48
:10282000C600016041608160C16001614161521C6C
:10283000042AE862EED3E16321646164E164A16487
:10284000206800F58050C0F830312068226900F51A
:102850008050C0F81C212268206902F5805200F5E2
:10286000D860C2F82801D4E900208088C2F80003AB
:1028700060682368D0F801500278102042EA0522EF
:10288000C3F80423E1656065A0650020F8BD000081
:10289000F444025800D3CEFEC0E1E40040F1E9FD6B
:1028A00040787D0100796CFC005A6202001F0AFA30
:1028B00080F0FA0240420F0070B5C16B0025466CF3
:1028C0002C302A462B4650F821404EB3002070BDD4
:1028D000E6686D1CF6001AD5521C012A00D10B4681
:1028E000491C042900D3091F50F82140E568002D38
:1028F00008DBE468640005D50124C461491C04298F
:1029000000D3091F8261C0E90413012070BDE4688F
:10291000A40011D50B46491C01220FE050F82140BC
:10292000E668002E01DB042DD2D34AB350F8231001
:1029300000244FF0807521E0491C521C0429EDD37E
:10294000091FEBE70E690E60CD604E692EB14E692E
:102950008E60CE6846F00076CE60CE6846F00046C7
:10296000CE60066A1EB1CE6846F08046CE605B1C23
:10297000042B00D31B1F641C50F823109442E1D396
:1029800000218161A2E770472DE9F04186B004463D
:1029900014216846FDF7EEFC34492068884262D174
:1029A0003348016841F400410160016801F40041CD
:1029B0000591016841F480310160016801F48031C2
:1029C0000591016841F400310160006800F40030B5
:1029D000059027480830016841F004010160016852
:1029E00001F004010591016841F0010101600168F5
:1029F00001F001010591016841F0400101600068AA
:102A000000250224009400F04000DFF868800B26C7
:102A10006946CDE90145CDE904604046039500F0E3
:102A2000C1FA03270496862069468DE8B100124852
:102A300000F0B8FA302004968DE8B10069464046AF
:102A400000F0B0FA4FF4605004968DE8B1000B48E6
:102A5000694600F0A7FA002205213D2000F06AFC3B
:102A60003D2000F059FC06B0BDE8F0810080024036
:102A7000D8440258000802580000025800180258B2
:102A8000704700002DE9F041044600681E46D0F86A
:102A90000032DB0719D1D0F8003223F0787343EA13
:102AA000415121F4F81141EA024141F00D01C0F811
:102AB000001200F07BFB4FF47A77054608E000BF78
:102AC00000F074FB401BB84202D90120BDE8F08140
:102AD0002068D0F80002C007F2D12068D0F80402C4
:102AE00080B230600020F1E7704710B511B1826DFF
:102AF000102A01D0012010BDFEF714F9002010BDEE
:102B000070B505460068D0F8000220F4706401F04A
:102B100055FB1149114A0144914202D244F4007418
:102B200016E00F4A0F4902448A4202D244F440742C
:102B30000EE00D4A0D4902448A4209D30C4A0D4960
:102B40001044884202D244F4807401E044F480646A
:102B50002868C0F8004270BD00D3CEFEC0E1E4009A
:102B600040F1E9FD40787D0100796CFC005A620279
:102B7000001F0AFA80F0FA0210B5416D102901D049
:102B8000012010BD232141651022016822230C6819
:102B900044F002040C6001680C6844F001040C600D
:102BA0000168D1F8004D44F00104C1F8004D0168FE
:102BB00001F58051D1F8044144F00104C1F8044109
:102BC000016801F58051D1F8084144F00104C1F8D1
:102BD0000841016801F58051D1F8604144F48174E5
:102BE000C1F8604142658365002010BD416D49B365
:102BF000232141651022016801F58051D1F804318B
:102C000023F00103C1F80431016801F58051D1F8C6
:102C1000083123F00103C1F8083101680B6823F083
:102C200001030B600168D1F8003D43F00103C1F8D6
:102C3000003D01680B6823F002030B60426582656A
:102C400000207047012070472DE9F041904604466E
:102C500019B1606D102804D050E0E06D40F0010023
:102C600007E000222046FDF783FE20B1E06D40F032
:102C70000200E06542E0A06A04EB8001401C0428E9
:102C80008D69A06201D3001FA0620146206804EB99
:102C9000810100F580508969C0F8201100F086FAA2
:102CA000102706461EE0206800F58050D0F860012D
:102CB000C0040CD5E06DE02140F00800E06520681C
:102CC00000F58050D0F860012066616516E0B8F12B
:102CD000FF3F07D000F06AFA811B414509D8B8F1DF
:102CE000000F06D0E8680028DDDB67650020BDE83E
:102CF000F081E06D40F00400E06567650120F6E7D3
:102D00007047704770B504460068D0F80052ED0770
:102D10001FD1D0F800029BB2124D20F07870C5F898
:102D2000043240EA415020F4F81040EA024020F01A
:102D30000C00001D40F00100C5F8000200F036FA5A
:102D40004FF47A76054606E000F030FA401BB042B8
:102D500001D9012070BD2068D0F80002C007F3D16E
:102D600070BD0000008002402DE9F05F044641483C
:102D700088460026017D01291AD00122027581466C
:102D8000B246C0F818A02079C00706D001214CF245
:102D90005030FEF707F900B10126207980070AD5E7
:102DA00002214CF25030FEF7FDF820B101265DE023
:102DB0000220BDE8F09F6EBB20682F4D012807D090
:102DC0004FF0FF31C8F80010A76840F2047B48E0DC
:102DD00061682069FEF7A6F82079C0070AD00121B2
:102DE0004CF25030FEF7DEF800B10126E86820F022
:102DF0000800E8602079800738D502214CF2503075
:102E0000FEF7D0F800B10126D5F80C0120F008003B
:102E1000C5F80C012AE0226938466168FEF758F8C7
:102E20002079C00709D001214CF25030FEF7BAF8E2
:102E3000E968064621EA0B01E960207980070BD595
:102E400002214CF25030FEF7ADF8D5F80C110646D1
:102E500021EA0B01C5F80C1116B1C8F8007005E0A5
:102E60007F1CD4E902010844B842D4D8304689F81E
:102E700014A09EE790050024002000520A48C16873
:102E800041F00101C160C168C9070BD0D0F80C1135
:102E900041F00101C0F80C11D0F80C01C00701D0BD
:102EA0000020704701207047002000522DE9F05F9C
:102EB0002948154608260C46027D012A08D0012221
:102EC0000275A4F10061B1F5801F04D2012703E06F
:102ED0000220BDE8F09F02274FF0000A8146C0F8AB
:102EE00018A04CF2503B39465846FEF75BF830BB11
:102EF000DFF86880012F404624D0D0F80C1141F053
:102F00000201C0F80C1100BFBFF36F8FBFF34F8FEA
:102F100001CD761E16F0FF0601C4F9D1BFF36F8F05
:102F2000BFF34F8F39465846FEF73CF8012F414614
:102F30000DD0D1F80C2122F00202C1F80C2189F841
:102F400014A0C6E7C16841F00201C160DCE7CA68AD
:102F500022F00202CA60F2E790050024002000522D
:102F60000D480E4A0E49C368DB0704D04260416039
:102F7000C368DB070BD1D0F80C31DB0709D0C0F8F0
:102F80000421C0F80411D0F80C01C00701D00120C1
:102F90007047002070470000002000522301674561
:102FA000AB89EFCD2DE9F84F714C00234FF0B04EB7
:102FB0004FF001094FF0030B4FF00F0AD0E000BFB4
:102FC00009FA03F812EA080274D04D68022D01D004
:102FD000122D0FD1DD085F0700EB850500950E6906
:102FE0002D6AFF0E0AFA07FCBE4025EA0C052E43A7
:102FF000009D2E625D000F7906680BFA05FC07F054
:10300000030726EA0C06AF40374307604E68012EDF
:1030100005D0022E03D0112E01D0122E0FD18668BA
:10302000CF6826EA0C06AF403743876046680F79C1
:1030300026EA0806C7F300179F4037434760C66873
:103040008F6826EA0C06AF403743C7604D68ED0035
:1030500030D5484D2E6846F002062E602D6823F0CC
:10306000030606F1B04605F0020500959D072F0FF7
:10307000D6F80854DFF800810AFA07FC404525EA33
:103080000C0502D14FF0000C41E0DFF8F0C06045C4
:1030900002D14FF0010C3AE0DFF8E4C0604502D104
:1030A0004FF0020C33E0DFF8DCC0604503D14FF095
:1030B000030C2CE053E0DFF8D0C0604502D14FF0A4
:1030C000040C24E0DFF8C4C0604502D14FF0050CC9
:1030D0001DE0DFF8BCC0604502D14FF0060C16E0E1
:1030E000DFF8B0C0604502D14FF0070C0FE0DFF809
:1030F000A8C0604502D14FF0080C08E0DFF89CC082
:10310000604502D14FF0090C01E04FF00A0C0CFAB7
:1031100007FC4CEA050CC6F808C425684E6825EA89
:103120000205F60300D51543256065684E6825EA5B
:103130000205B60300D5154365604F687546DEF895
:103140000060FF0226EA020600D516432E604F6893
:103150006E68BF0226EA020600D516436E605B1C4D
:103160000A6832FA03F57FF42BAFBDE8F88F000050
:1031700080000058F444025800000258000402582D
:1031800000080258000C025800100258001402589F
:1031900000180258001C025800200258002402584F
:1031A00001480068000C70470010005C014880680E
:1031B000704700007C0000240248816802781144B6
:1031C000816070477C000024032010B500F0D2F825
:1031D00001F02EF80E490F4A0F4B0C68C4F303247C
:1031E000145D04F01F04E0401860096801F00F014D
:1031F000515C01F01F01C84008490860002000F040
:103200000FF808B1012010BD00F078F8002010BDC3
:10321000184402583C020108880000248C00002455
:1032200070B50D4D04462878A0B14FF47A71B1FB0A
:10323000F0F00A490968B1FBF0F001F0FBFA48B977
:10324000102C07D200222146501E00F073F80020F7
:103250006C6070BD012070BD7C00002488000024DB
:10326000F0B5154C4378211D0A1D23600378F3B196
:1032700043680B60057BC67A817A437B2D07847B8C
:1032800045EA0665C77B90F809C0067A90F800E029
:1032900045EAC14040EA834040EA444040EA0740F2
:1032A00040EA0C2040EA460040EA0E0001E000201F
:1032B00008601060F0BD000098ED00E0BFF35F8F84
:1032C000044800210368034A23F48033036070320A
:1032D0001160704724ED00E0074A40F00100064904
:1032E00070321060086840F480300860BFF34F8F80
:1032F000BFF36F8F7047000024ED00E0054808B56C
:10330000016841F002010160006800F002000090D5
:1033100008BD0000F4440258002809DB410900F010
:103320001F028900012001F1E0219040C1F8000155
:10333000704700000E4BF0B41B680D46C3F3022328
:10334000C3F10706042E00D90426191D072901D24E
:10335000002300E0DB1E012404FA06F19C40491E14
:103360002940641E994014402143F0BC03F0C6BCC0
:103370000CED00E0064900F0070210B54FF6FF041F
:103380000868044B204040EA02201843086010BD42
:103390000CED00E00000FA05124970B50A6852070A
:1033A00006D40A6802F00702824201D0012070BDF3
:1033B0000A6822F0070202430A60FFF7F7FE094D90
:1033C0004FF47A760446083D07E000BFFFF7EEFEB3
:1033D000001BB04201D9032070BD28688004F5D5D8
:1033E000002070BD0C48025810B500F021FF064ABD
:1033F00006491268064BC2F303229A5C02F01F02D0
:10340000D040086010BD0000184402588800002415
:103410003C02010810B500F0D1FE05490968054AD3
:10342000C1F30211515C01F01F01C84010BD000042
:10343000204402583C020108494930B5484C0B1D54
:103440000A68143409681D68246802F0030305F053
:103450001002C1F30531C4F3CC04002914FB02F2BD
:1034600000EE102AF8EE400A75D03F4A9FED3D1A53
:10347000B7EE000A6BB1DFED3D1A012B01D0022B34
:1034800064D002EE101A1168F8EE422A81EEA22AE8
:1034900021E0334C283C23689B0612D5344B24682A
:1034A00001EE901A1168C4F3C104F8EE612AE340FA
:1034B00001EE903AC1F30801F8EE611A81EEA22AFA
:1034C0000BE001EE901ADFED2B2A00BFF8EE611A37
:1034D000116882EEA12AC1F3080101EE901A116869
:1034E000F8EE611A40EE811A71EE800A62EE200A4F
:1034F000C1F3462101EE101AB8EE411A31EE001A5E
:10350000C0EE811ABCEEE11A80ED001A1168C1F319
:10351000064101EE101AB8EE411A31EE001AC0EE63
:10352000811ABCEEE11A80ED011A1168C1F306613F
:1035300001EE101AB8EE411A31EE000A80EE801A40
:10354000BCEEC10A80ED020A30BD04E001EE901A23
:10355000DFED092ABAE70021016041608160F3E7ED
:103560002844025800000039384402580024744AA4
:103570000090D0030024744C20BCBE4B494930B5A8
:10358000484C0B1D0A681C3409681D68246802F049
:10359000030305F48072C1F30551C4F3CC04002980
:1035A00014FB02F200EE102AF8EE400A75D03F4AF2
:1035B0009FED3D1AB7EE000A6BB1DFED3D1A012B0E
:1035C00001D0022B64D002EE101A1168F8EE422AE4
:1035D00081EEA22A21E0334C283C23689B0612D5B9
:1035E000344B246801EE901A1168C4F3C104F8EE5C
:1035F000612AE34001EE903AC1F30801F8EE611A46
:1036000081EEA22A0BE001EE901ADFED2B2A00BF1B
:10361000F8EE611A116882EEA12AC1F3080101EEE9
:10362000901A1168F8EE611A40EE811A71EE800A64
:1036300062EE200AC1F3462101EE101AB8EE411ADB
:1036400031EE001AC0EE811ABCEEE11A80ED001ACC
:103650001168C1F3064101EE101AB8EE411A31EEBD
:10366000001AC0EE811ABCEEE11A80ED011A116851
:10367000C1F3066101EE101AB8EE411A31EE000AEC
:1036800080EE801ABCEEC10A80ED020A30BD04E073
:1036900001EE901ADFED092ABAE7002101604160CE
:1036A0008160F3E728440258000000394044025882
:1036B0000024744A0090D0030024744C20BCBE4BFC
:1036C0002DE9FC5F044650F8241B002500902E468F
:1036D0000801FE4FDFF8F8931DD5606E50B1B0F5CC
:1036E000801F0CD0B0F5001F0ED0B0F5401F1DD0CC
:1036F00001250FE0386840F40030386016E0022100
:10370000201D01F0E7FE03E00098022101F072FFA6
:1037100005000BD02E462088C00523D5606D0528F6
:103720001ED2DFE800F00C11161B1B00626ED9F8E8
:10373000001021F440111143C9F80010EBE738687C
:1037400040F40030386009E00021201D01F0C2FE85
:1037500003E00098002101F04DFF05466DB100E047
:1037600001252E462088800528D5A06D80281ED0F2
:103770000CDC90B140280ED114E0626DD9F8001035
:1037800021F007011143C9F80010EBE7C02813D05E
:10379000B0F5807F10D001250FE0386840F400308C
:1037A000386009E00021201D01F094FE03E000983C
:1037B000002101F01FFF054695B12E462088DFF855
:1037C0001083400508F108082CD5D4F8A400B0F502
:1037D000800F20D00DDCA0B1B0F5001F0FD115E097
:1037E000A26DD9F8001021F4E0711143C9F800105E
:1037F000E4E7B0F5C00F13D0B0F5000F10D00125ED
:103800000FE0386840F40030386009E00021201DE6
:1038100001F060FE03E00098002101F0EBFE054698
:1038200075B12E46208800052DD5D4F8A800B0F13A
:10383000007F21D00EDCA8B1B0F1807F10D116E05E
:10384000D4F8A420D8F8001021F460011143C8F87E
:103850000010E7E7B0F1407F13D0B0F1806F10D0D7
:1038600001250FE0386840F40030386009E000219D
:10387000201D01F02FFE03E00098002101F0BAFEA8
:1038800005466DB12E46206880011FD5A06CD8B1C9
:1038900010280FD0202812D0302815D0012514E090
:1038A000D4F8A820D8F8001021F0E0611143C8F83E
:1038B0000010E8E7386840F40030386004E0022186
:1038C000201D01F007FE05466DB12E462088C0047C
:1038D0002BD5E06DB0F5005F20D00DDCA0B1B0F5C8
:1038E000805F0FD115E07A48A26C001F016821F0BB
:1038F000300111430160E9E7B0F5405F13D0B0F546
:10390000804F10D001250FE0386840F40030386057
:1039100009E00021201D01F0DDFD03E000980021F9
:1039200001F068FE054685B12E462088800429D521
:10393000206EB0F5403F23D010DC08B3B0F5803FD7
:1039400014D0B0F5003F0FD115E0E26DD9F80010AA
:1039500021F4E0411143C9F80010E6E7B0F5802FEB
:103960000ED0B0F5A02F0BD001250AE00121201DBB
:1039700001F0B0FD03E00098012101F03BFE054697
:103980008DB12E46208840042AD5D4F8AC00B0F181
:10399000405F23D010DC08B3B0F1805F14D0B0F1E9
:1039A000005F0FD115E0226ED9F8001021F4E0215C
:1039B0001143C9F80010E5E7B0F1804F0ED0B0F127
:1039C000A04F0BD001250AE00121201D01F082FD4E
:1039D00003E00098012101F00DFE05466DB12E4671
:1039E000208800041FD5E06ED8B1B0F1805F0ED002
:1039F000B0F1005F10D0012514E0D4F8AC20D8F865
:103A0000001021F0E0411143C8F80010E8E73868E1
:103A100040F40030386004E00121201D01F05AFD1F
:103A200005466DB12E462068C0011ED5606CD0B130
:103A300001280ED0022811D0032814D0012513E04C
:103A4000E26ED9F8001021F040511143C9F800107E
:103A5000E9E7386840F40030386004E00221201DB6
:103A600001F038FD054685B12E462068DFF85CB0D0
:103A70004002ABF11C0B57D51648016841F4807128
:103A80000160FFF793FB82460EE01148626C001F55
:103A9000016821F0030111430160E6E7FFF786FBAF
:103AA000A0EB0A0064283DD80A480068C005F5D597
:103AB0007DBBDFF81CA0B4F8B0100AF1200ADAF8D8
:103AC000000001F4407100F4407005E02C440258FD
:103AD0005044025800480258884211D0DAF80010C9
:103AE000DAF8002021F4407142F48032CAF8002054
:103AF000DAF8002022F48032CAF80020CAF8001058
:103B0000D4F8B000B0F5807F21D1FFF74FFB0190D2
:103B100019E008E0FFF74AFB0199411A41F28830A9
:103B2000814210D903252E462078DFF82CA4C00747
:103B30003DD0A06F182838D026DC80B3082829D0C3
:103B4000102825D12CE0DAF800008007E2D5D4F85F
:103B5000B010C1F30120032858460DD0016821F4AC
:103B60007C510160B4F8B020DAF80010C2F30B0207
:103B70001143CAF80010D7E7F84A036802EA1112A5
:103B800023F47C511143ECE720280ED028280CD0D8
:103B900001250BE00121201D01F09CFC04E004E064
:103BA0000098012101F026FD05465DB12E462078E2
:103BB00080071ED5606F062819D2DFE800F0160CCA
:103BC00011161616A26FDAF8001021F03801114311
:103BD000CAF80010EBE70121201D01F07BFC03E097
:103BE0000098012101F006FD054675B100E00125B0
:103BF0002E46207840071FD5D4F89000062819D209
:103C0000DFE800F0160C11161616626FDAF80010D5
:103C100021F007011143CAF80010EAE70121201D35
:103C200001F058FC03E00098012101F0E3FC054697
:103C30009DB100E001252E46207880062BD5D4F8D2
:103C40008C00B0F1405F24D011DC10B3B0F1805F84
:103C500015D0B0F1005F10D116E0D4F89020D8F85C
:103C6000001021F007011143C8F80010E4E7B0F19B
:103C7000804F0ED0B0F1A04F0BD001250AE00021FB
:103C8000201D01F027FC03E00098022101F0B2FCA6
:103C900005468DB12E46207840062BD5D4F89800E5
:103CA000B0F5406F24D011DC10B3B0F5806F15D0A3
:103CB000B0F5006F10D116E0D4F88C20DAF80010BF
:103CC00021F0E0411143CAF80010E4E7B0F5805F4D
:103CD0000ED0B0F5A05F0BD001250AE00021201D19
:103CE00001F0F8FB03E00098022101F083FC054697
:103CF0008DB12E46207800062BD5D4F89C00B0F567
:103D0000C04F24D011DC10B3B0F5005F15D0B0F572
:103D1000804F10D116E0D4F89820D8F8001021F484
:103D2000E0511143C8F80010E4E7B0F5004F0ED0A1
:103D3000B0F5204F0BD001250AE00021201D01F035
:103D4000C9FB03E00098022101F054FC054665B36D
:103D50002E46207800070BD5D4F88010B1F5805F8F
:103D60002DD0DAF8002022F440520A43CAF800208D
:103D70002078C0060BD5D4F89410B1F5807F26D0FA
:103D8000D8F8002022F440720A43C8F800202068C6
:103D9000000330D5D4F8A00008B3B0F5803F23D09D
:103DA000B0F5003F25D0012524E0D4F89C20D8F8B8
:103DB000001021F460411143C8F80010C9E70098D1
:103DC000022101F017FC0028D2D00126D0E700988C
:103DD000022101F00FFC0028D9D00126D7E70021ED
:103DE000201D01F077FB03E00098022101F002FCA6
:103DF000054685B12E462068400322D5D4F88400BC
:103E0000B0F5801F11D0B0F5001F13D0B0F5401FE2
:103E100015D0012514E0D4F8A020D8F8001021F422
:103E200040311143C8F80010E5E7386840F400302D
:103E3000386004E00098012101F0DCFB054655B133
:103E40002E462068C0031CD5E06C70B1B0F5803FF1
:103E500010D0012514E0D4F88420DAF8001021F401
:103E600040111143CAF80010EBE7386840F4003005
:103E7000386004E00221201D01F02CFB0546CDB185
:103E80002E462068800005D50098022101F0B2FB83
:103E900000B10126206880031BD5E06FB8B1B0F5F2
:103EA000807F10D0B0F5007F11D0B0F5407F0ED0EC
:103EB00001250DE02848E26C0838016821F48031C2
:103EC00011430160DDE7386840F400303860EDB33D
:103ED0002E462068C00207D5226FD9F8001021F0C5
:103EE00000411143C9F800102068C00008D5D4F87B
:103EF000B420DBF8001021F480411143CBF800100E
:103F00002068800207D5A26ED9F8001021F08071D8
:103F10001143C9F80010206840000CD5DBF80010F0
:103F200021F40041CBF80010DBF80010D4F8B820E1
:103F30001143CBF800102068002809DA0648226DEA
:103F40000838016821F04051114300E008E00160A9
:103F50007EB10120BDE8FC9F54440258CFFFFF0012
:103F6000E26FDAF8001021F440711143CAF8001032
:103F7000AFE70020EEE700002DE9F05F04000F46F8
:103F80007ED0DFF82482D8F8000000F00F00B8429D
:103F90000CD2D8F8001021F00F013943C8F80010F6
:103FA000D8F8000000F00F00B84269D120787F4DAA
:103FB00040070AD52069296801F07001884204D9B8
:103FC000296821F07001014329602078774E361D61
:103FD00000070AD56069316801F07001884204D990
:103FE000316821F07001014331602078C0060AD5A4
:103FF000A069316801F4E061884204D9316821F494
:10400000E061014331602078DFF8A0B180060BF158
:10401000080B0CD5E1695846DBF8002002F070026D
:10402000914204D9026822F070020A4302602078AB
:1040300080070AD5E068296801F00F01884204D999
:10404000296821F00F01014329602078C0073ED084
:104050005649A2682868183920F470601043286017
:104060006068022818D0032819D00968012819D0DF
:10407000490700294ADADFF834A1AAF1080A00E06A
:1040800044E0DAF8002022F007020243CAF80020D8
:10409000FFF78CF8814612E009688903E9E70968AF
:1040A0008901E6E7C905E4E7FFF780F8A0EB09011D
:1040B00041F28830814202D90320BDE8F09F616857
:1040C000DAF8000000F03800B0EBC10FECD1207836
:1040D00080070AD5E068296801F00F01884204D200
:1040E000296821F00F0101432960D8F800104046EB
:1040F00001F00F01B9420BD9016821F00F013943DA
:104100000160006800F00F00B84201D00120D4E740
:10411000207840070AD52069296801F0700188429B
:1041200004D2296821F0700101432960207800073A
:104130000AD56069316801F07001884204D23168A3
:1041400021F07001014331602078C0060AD5A069D2
:10415000316801F4E061884204D2316821F4E06101
:1041600001433160207880060CD5E1695846DBF8C0
:10417000002002F07002914204D2026822F0700224
:104180000A43026000F054F82968094AC1F3032188
:10419000515C01F01F01C8400649086006480068EC
:1041A000BDE8F05FFFF73CB8002000521844025809
:1041B0003C020108880000248000002410B5FFF7AD
:1041C00013F9064A06491268064B02F00F029A5C80
:1041D00002F01F02D040086010BD000018440258D1
:1041E0008C0000243C02010810B5FFF7E7FF0549E9
:1041F0000968054AC1F30211515C01F01F01C84072
:1042000010BD00001C4402583C02010810B5FFF725
:10421000D5FF05490968054AC1F30221515C01F047
:104220001F01C84010BD00001C4402583C02010898
:10423000454970B545480968434B103B11F03802B9
:1042400008D00111082A03D0102A0BD0182A0BD04D
:10425000084670BD19688906FBD51968C1F3C1010C
:10426000C84070BD3A4870BD3749374D18310C1DF4
:1042700024350A68096826682D6802F0030406F0F0
:104280000102C1F30511C5F3CC0515FB02F200EEE6
:10429000102AB8EE400AE9B32F4ADFED2E0AB7EE36
:1042A000001A6CB1DFED2D1A012C01D0022C43D085
:1042B00002EE101A1068F8EE422A81EEA22A1EE0E1
:1042C0001C68A40611D51B6801EE901A1168C3F38F
:1042D000C103F8EE612AD84001EE900AC1F308004C
:1042E000F8EE611A81EEA22A0BE001EE901ADFEDE2
:1042F0001C2A00BFF8EE611A106882EEA12AC0F3F2
:10430000080001EE900AF8EE611A40EE201A31EE34
:10431000810A00E015E022EE000A1068C0F3462092
:10432000401C00EE900AF8EE600A80EE201ABCEE07
:10433000C10A10EE100A70BD01EE901ADFED092AD5
:10434000D8E7002070BD0000104402580090D00350
:1043500040787D0100000039304402580024744A3E
:104360000024744C20BCBE4B2DE9F05F04007DD0CE
:10437000FF4F2078FE4D1837DFF8F493103DC0074B
:1043800048D0D9F80000396800F03800102815D05E
:10439000182803D101F0030002280FD06068B0F59F
:1043A000803F12D010B1B0F5A02F18D0286820F4AB
:1043B00080302860286820F4802009E02868800385
:1043C00028D560680028D2D024E0286840F48030E6
:1043D0002860606888B1FEF7E9FE064609E02868B3
:1043E00040F480202860F0E7FEF7E0FE801B6428A0
:1043F0006FD828688003F7D50CE0FEF7D7FE064695
:1044000005E000BFFEF7D2FE801B6428F0D82868C4
:104410008003F7D4207841F20308D54E0C3E800784
:1044200061D5D9F80000396810F038000ED018288E
:1044300001D188070AD0E06880B3296821F019010A
:1044400001432960FEF7B2FE82462FE0286840074C
:1044500002D5E06800288AD0E168286820F01900B9
:1044600008432860FEF7A2FE824607E0D1E000BFC5
:10447000FEF79CFEA0EB0A000228B9D82868400786
:10448000F6D500BFFEF78CFE404513D82069316891
:1044900021F47C3141EA0030306024E011E000BFBB
:1044A000FEF784FEA0EB0A000228A1D82868400786
:1044B000F6D5E7E7207C316821F0FE4141EA006053
:1044C000EAE7286820F001002860FEF76FFE8246C8
:1044D00006E0FFE0FEF76AFEA0EB0A00022887D89C
:1044E00028684007F6D42078C00657D5D9F80000D0
:1044F000DFF87CB2396800F03800ABF1040B082813
:1045000010D0182803D101F0030001280AD0E06977
:104510000028286832D040F080002860FEF746FE70
:10452000824623E02868C00523D5E069802870D141
:104530001FE000BF94F82000316821F0F84141EA03
:10454000806030602AE000BF94F82010DBF8002083
:1045500022F07C5242EA0161CBF800101EE000BF5D
:10456000FEF724FEA0EB0A00022886D82868C005C2
:10457000F6D5FEF715FE4045E6D8DBE720F08000D3
:104580002860FEF713FE064605E000BFFEF70EFEAC
:10459000801B022889D82868C005F7D42078000736
:1045A00029D573486169643000298046016811D0BB
:1045B00041F001010160FEF7F9FD064605E000BF8C
:1045C000FEF7F4FD801B022889D8D8F80000800788
:1045D000F6D510E021F001010160FEF7E7FD064687
:1045E00005E000BFFEF7E2FD801B022872D8D8F874
:1045F00000008007F6D42078800623D5A069002823
:10460000286810D040F480502860FEF7CFFD0646A1
:1046100005E0E6E0FEF7CAFD801B02285AD82868AC
:104620008004F7D50EE020F480502860FEF7BEFD30
:10463000064604E0FEF7BAFD801B02284AD8286827
:104640008004F7D4207840074FD5DFF82881D8F8C8
:10465000001041F48071C8F80010FEF7A7FD06466F
:1046600005E000BFFEF7A2FD801B642832D8D8F811
:104670000000C005F6D53E4EA068603601280AD07D
:1046800008B1052813D0306820F001003060306890
:1046900020F0040002E0306840F001003060A068C3
:1046A00041F2883A90B1FEF781FD80460AE0306819
:1046B00040F004003060EEE7FEF778FDA0EB080163
:1046C000514507D830688007F6D50EE0FEF76EFD3D
:1046D000804607E084E000BFFEF768FDA0EB08011C
:1046E00051457DD830688007F6D4606AF0B3D9F8B8
:1046F0000010C1F3C201032973D00228286820F0FA
:104700008070286003D0FEF751FD044680E0FEF77C
:104710004DFD064605E000BFFEF748FD801B022860
:1047200073D828688001F7D4E26A40F2F331386820
:1047300054F8283F884340EA021018433860217B30
:104740004FF4FE0C22894FF0FE47208A4902084BA5
:10475000521E267DA1F5007189B2401EC2F30802E7
:1047600020331143761E0CEA004005E053E00000C0
:104770001044025800480258014307EA0662181F15
:10478000114319601A1D016821F0010101601168CF
:104790004FF6F876236AB14341EAC301116001681C
:1047A000A26921F00C01114301600168E26921F066
:1047B000020111430160016841F480310160016828
:1047C00041F400310160016841F480210160016819
:1047D00041F001010160286840F08070286001E02C
:1047E00013E01AE0FEF7E2FC044604E0FEF7DEFC0C
:1047F000001B022809D828688001F7D50BE000BF0C
:10480000FEF7D4FC001B022802D90320BDE8F09F6C
:1048100028688001F4D40020F8E70120F6E70000C2
:1048200003490A6822F4600202430A6070470000EC
:1048300004040058401EB0F1807F10B501D3012060
:1048400010BD4FF0E02460610F21601702F056FAAE
:104850000020A0610721216110BD00002DE9F04377
:1048600090F83C20012A42D0012280F83C2051F8E7
:104870000C4BDFF880804FF0000991E8680051E9A7
:10488000022723F44073B1F80CC03B43CF6923F4F3
:1048900080631343026823F40063234323F48053AB
:1048A00043EA050323F4005343EA060323F4804359
:1048B00043EA07030C3923F47023424543EA0C43CF
:1048C00002D00D4CA2420CD18D8C23F47006D1E99C
:1048D000073446EA055121F08071194321F0007335
:1048E0002343536480F83C900020BDE8F08302200D
:1048F000FBE70000000001400004014070B590F8A3
:104900003C20012A24D0134C012580F83C5002227F
:1049100080F83D2002685368A242966802D00E4C8F
:10492000A24203D14C6823F4700323430C6823F0A4
:10493000700389681C435460002326F080060268D7
:104940003143916080F83D5080F83C30184670BD8E
:10495000022070BD000001400004014010B50400B9
:1049600003D094F83D0010B107E0012010BD0020F5
:1049700084F83C00204600F00DF8022084F83D0049
:104980002068211D01F024F8012084F83D0000205A
:1049900010BD000008B500680649884208D10648E5
:1049A000016841F002010160006800F0020000901F
:1049B00008BD000000040140F044025870B50446F0
:1049C00090F83C00012814D0394B012584F83C5064
:1049D000022084F83D0022689068184020F47F404F
:1049E00090600868702828D010DC10F00F0F03D0FA
:1049F0004BE04FF0020070BD4FEA2012072A44D26C
:104A0000DFE802F05151515149323A00B0F1101F24
:104A100049D009DCB0F5805F37D0B0F5005F17D022
:104A2000B0F5801F31D13EE0A0F5801120393AD099
:104A3000102938D0202928D135E04A682068D1E9EA
:104A4000021301F034F82068816841F0770109E031
:104A50004A682068D1E9021301F029F820688168CA
:104A600041F48041816010E0CA684968206801F023
:104A7000B9F92068502106E0CA684968206801F049
:104A8000C2F92068602101F01BF8002084F83D5035
:104A900084F83C0070BDCA684968206801F0A2F93A
:104AA00020684021EFE7226801461046EBE700004E
:104AB00088FFCEFF10B586B0044614216846FBF788
:104AC00059FC0E492068884215D10D48016841F40F
:104AD0008071016000680323602100F480700590FC
:104AE0000020009102226946CDE90120CDE90303AF
:104AF0000448FEF757FA06B010BD0000000401405C
:104B0000E04402580020025870B5044690F83C007A
:104B10000D4601280ED0012684F83C60022084F85E
:104B20003D000C2A45D007DC5AB1042A1BD0082AC4
:104B300078D12CE0022070BD102A4ED0142A71D1F9
:104B40005DE0206800F0C6FF2068816941F008013F
:104B500081612068816921F00401816120682A69EE
:104B60008169114311E0206801F008F8206881692B
:104B700041F4006181612068816921F48061816173
:104B800020682969826942EA012181614AE020683E
:104B900001F040F82068C16941F00801C161206856
:104BA000C16921F00401C16120682A69C16911430A
:104BB00011E0206801F074F82068C16941F40061D7
:104BC000C1612068C16921F48061C16120682969DF
:104BD000C26942EA0121C16124E0206801F096F82F
:104BE0002068416D41F0080141652068416D21F068
:104BF0000401416520682A69416D114311E0206874
:104C000001F0BAF82068416D41F400614165206807
:104C1000416D21F48061416520682969426D42EA55
:104C200001214165002084F83D6084F83C0070BD9E
:104C300010B5040003D094F83D0010B107E0012046
:104C400010BD002084F83C00204600F00CF8022043
:104C500084F83D002068211D00F0BAFE012084F890
:104C60003D00002010BD704710B5012204460068C9
:104C700000F010FF1148216881420BD0104881429A
:104C800008D01048814205D00F48814202D00F4819
:104C9000814203D1486C40F40040486420680C4ACB
:104CA00081681140062906D0B1F5803F03D0016824
:104CB00041F001010160002010BD00000000014032
:104CC0000004014000400140004401400048014010
:104CD0000700010010B5044690F87C0001281BD0A5
:104CE0002420012184F87C10C206C4F880002068CA
:104CF0000168036841F0005123F00103036062661C
:104D000020680160204601F0B3F82021C4F880102B
:104D1000002084F87C0010BD022010BD70B5044650
:104D200090F87C0001281DD0012284F87C202420EA
:104D3000C4F8800020680568026822F00102026061
:104D40002068826822F060620A438260204601F097
:104D50008FF82268202100201560C4F8801084F8A4
:104D60007C0070BD022070BD70B5044690F87C00D8
:104D700001281DD0012284F87C202420C4F8800062
:104D800020680568026822F00102026020688268DB
:104D900022F060420A438260204601F069F82268EE
:104DA000202100201560C4F8801084F87C0070BDBC
:104DB000022070BD10B5040003D0D4F8800010B1FB
:104DC00007E0012010BD002084F87C00204600F0A0
:104DD00027F82420C4F880002068016821F0010130
:104DE0000160204601F00AF90128EBD0A06A10B159
:104DF000204601F06FF82068416821F4904141603D
:104E00002068816821F02A0181602068016841F0F2
:104E1000010101602046BDE8104001F0BFB800006C
:104E200010B586B0044614216846FBF7A3FA124970
:104E3000206888421ED11148016841F010010160CC
:104E4000006800F0100005900C481038016841F02F
:104E50000101016000680221002200F001000590BC
:104E6000032307244FF4C0608DE81F0004486946FF
:104E7000FEF798F806B010BD00100140F04402584B
:104E8000000002582DE9F8430446D0F880001F4680
:104E900016460D46202852D1DDB1D6B194F87C00DB
:104EA00001284CD0012284F87C2021214FF00008F9
:104EB000C4F88880C4F880101834FEF777F981466A
:104EC00054F8100CA687E687183CB0F5805F03D035
:104ED00004E00120BDE8F883206910B12E460025CA
:104EE00010E000260EE08021204601F08FFEB8B9C8
:104EF000C6B116F8010B21688862B4F85600401E4E
:104F0000A4F85600B4F856004B464FF00002009744
:104F10000028E8D14FF04001204601F077FE38B17B
:104F20000320D7E735F8020B2168C0F30800E3E758
:104F30002021C4F88010002084F87C80CAE7022079
:104F4000C8E7FEE738B504466A4600200090012114
:104F500063692068984700286FF0040525DB6369C2
:104F6000012120686A46984700281EDB0098400708
:104F700001D4012038BD6369002120686A46984742
:104F8000002812DB0098C10408D44FF40451814377
:104F90001CD081041CD4C0051CD415E063691F21FA
:104FA00020686A469847002801DA284638BD0098EC
:104FB000C10401D4062038BDC0F38200062805D004
:104FC000022805D0052805D0052038BD022038BDAF
:104FD000032038BD042038BD2DE9F84304460020E5
:104FE0000090064660680025B8BBA06800B1804705
:104FF000202020606FF00407636912216A46304662
:105000009847002801DA3D4607E0009800F01F00AD
:10501000B04202D10025266002E0761C1F2EEBD99B
:1050200020681F2802D96FF002053BE045BB2369C9
:1050300000214FF400429847002824DB63690021D7
:1050400020686A46984700281BDBA06980474FF418
:10505000FA7806466FF001090EE017E0A069804774
:10506000801B404507D86369002120686A4698473D
:10507000002801DA05E04D4600980004EED42DB179
:1050800010E03D460EE06FF003050BE0A06980479D
:105090004FF4FA670646A0698047801BB842FAD9E8
:1050A000012060602846BDE8F88388B1CA687AB1FB
:1050B0008A686AB10A695AB10A6882604A68C2603D
:1050C000CA6842618A68026109698161002070478B
:1050D0004FF0FF30704700007FB50024009401942A
:1050E00002940394FEF7EAF807208DF808008DF883
:1050F0000C4001258DF8094003268DF80D406846C7
:1051000016498DF800508DF80A408DF80E408DF844
:10511000014001918DF80B608DF80F50FEF7A0F85B
:105120000D218DF808108DF80C408DF809408DF890
:105130000D400B488DF800508DF80A408DF80E5048
:105140008DF80150019068468DF80B608DF80F4086
:10515000FEF786F80420FEF7BFF87FBD000004309C
:105160000040043010B58AB024216846FBF702F9EC
:105170001249114808600846FCF71BF808B1FBF714
:10518000A5FE02206946002400942246CDE9014094
:105190000A4803940494FBF771FF08B1FBF796FEED
:1051A0000648102269460394FBF768FF002801D0E7
:1051B000FBF78CFE0AB010BD007400400002002412
:1051C000114808B5016841F001010160016801F072
:1051D00001010091016841F00201016000680022B4
:1051E000052100F0020000900D20FEF7A3F80D202D
:1051F000FEF792F8002205213820FEF79BF8BDE863
:1052000008403820FEF788B8D8440258154808B539
:10521000016841F080010160016801F080010091A6
:10522000016841F004010160016801F0040100918E
:10523000016841F001010160016801F00101009184
:10524000016841F040010160016801F040010091F6
:10525000016841F480710160006800F48070009082
:1052600008BD0000E0440258FEB5394CC022A82316
:10527000251D012022701E266370FF21A0700027CB
:10528000E6702E1D29706970A970EF70327073700E
:10529000B070F07004F076F82068E1782D4A90FA4A
:1052A00080FC2D4B90FA80FE00BA0C060CF47F4C6B
:1052B000084344EA0C240EF47F0CA5F1100144EAE3
:1052C0001C2444EA106008602868E97890FA80FCA1
:1052D00005BA00BA0C06084305F47F450CF47F0CB0
:1052E000A6F1100144EA052444EA1C2444EA1060B3
:1052F00008603068F17805BA06BA00BA0C060843AF
:10530000134905F47F45091F06F47F0644EA052486
:1053100044EA162444EA106008600097CDE901329F
:105320000A1F0E480B46083904F030FD0B4804F004
:10533000D1FD0A4890F82B004007084803D5BDE886
:10534000FE4004F01ABEBDE8FE4004F0C9BD0000F6
:1053500058000024BD7C0008E17E000804030024FE
:10536000034810B502F000FEBDE8104005F054BF40
:105370000403002410B59AB000241C21009412A844
:10538000019402940394049405940694FAF7F2FFAE
:105390002C2107A8FAF7EEFF314840F2BF322F491F
:1053A00040F2E73380E81600C0E9033444618461C9
:1053B000FFF7D4FA08B1FBF789FD4FF48050009055
:1053C00027486946FFF7FAFA08B1FBF77FFD244842
:1053D000FFF72EFC08B1FBF779FD214804A90494DE
:1053E00005940694FFF78AFA08B1FBF76FFD12AA3D
:1053F00040F22621602082E813001948002212A9F9
:105400001594169417941894FFF77EFB08B1FBF7D8
:105410005DFDFA2013901248042212A9FFF774FBD5
:1054200008B1FBF753FD4FF400500794089409941A
:1054300001030A94CDE90B40CDE90E41084807A9C4
:105440000D9410941194FFF709FA08B1FBF73EFD93
:105450000348FFF72FFB1AB010BD00000004014005
:10546000C40400241848002110B5164C0C224FF437
:10547000E1330460C0E90131C160C0E90412816117
:10548000C161016241628162FFF794FC08B1FBF7E0
:105490001DFD0D480021FFF767FC08B1FBF716FD65
:1054A00009480021FFF73AFC08B1FBF70FFD064859
:1054B000FFF710FC002803D0BDE81040FBF706BD45
:1054C00010BD00000010014004050024FEE77047F5
:1054D000704700002DE9F047454D044689464FF0DE
:1054E000000A2868C04380070AD0414E283E306831
:1054F00020F080603060FDF759FE0746B04608E0B6
:105500000120BDE8F08700BFFDF750FEC01B022858
:1055100067D8D8F800000001F6D4206829684FF455
:10552000FE0721F47C313E0241EA00302860207AF7
:10553000A389B4F804C040022D4D2D495B1E227C86
:10554000ACF1010C1035091DA0F5007080B2521E9F
:10555000CCF3080C07EA034340EA0C00184306EAC0
:105560000262104328600868626920F0C00010439E
:1055700008600A68A06922F0200202430A60281D20
:105580000A6822F010020A6002684FF6F873E469B4
:105590009A4342EAC40202600868B9F1000F40F081
:1055A00010020A6011D00868B9F1010F11D040F45F
:1055B00000100860D8F80000444640F08060C8F849
:1055C0000000FDF7F3FD05460DE0086840F40020FB
:1055D000EFE740F48010ECE7FDF7E8FD401B022800
:1055E00001D903208DE720680001F5D5504688E7F2
:1055F000284402582DE9F047454D044689464FF0AE
:10560000000A2868C04380070AD0414E283E30680F
:1056100020F080503060FDF7C9FD0746B04608E035
:105620000120BDE8F08700BFFDF7C0FDC01B0228C8
:1056300067D8D8F800008000F6D4208829684FF495
:10564000FE0721F07C713E0241EA00502860207A7A
:10565000A389B4F804C040022D4D2D495B1E227C65
:10566000ACF1010C1835091DA0F5007080B2521E76
:10567000CCF3080C07EA034340EA0C00184306EA9F
:105680000262104328600868626920F44060104399
:1056900008600A68A06922F4007202430A60281DAB
:1056A0000A6822F480720A6002684FF6F873E469AF
:1056B0009A4342EAC40202600868B9F1000F40F45C
:1056C00080720A6011D00868B9F1010F11D040F062
:1056D00080700860D8F80000444640F08050C8F858
:1056E0000000FDF763FD05460DE0086840F480000A
:1056F000EFE740F40000ECE7FDF758FD401B0228FF
:1057000001D903208DE720688000F5D5504688E751
:10571000284402582022BFF34F8F064B02E0891A1B
:10572000186010440029FADCBFF34F8FBFF36F8F6E
:10573000704700005CEF00E01249884201D200206F
:1057400070471149884201D2012070470F498842B1
:1057500001D2022070470E49884201D203207047CF
:105760000C49884201D2042070470B49884201D27B
:10577000052070470949884201D20620704707205A
:10578000704700000000020800000408000006083E
:105790000000080800000A0800000C0800000E08BD
:1057A0002DE9F04F87B04FF00009054616468A46AE
:1057B000CDF814900068B0F1006F58D3800756D12F
:1057C000FDF7CEFB2C684CF2503B2A4804EB8606D2
:1057D000844235D336E02068401C2CD001224F464D
:1057E0002046CDE90092FFF7A7FF202102906846EE
:1057F000CDE9032105A9FDF7B7FA18BB1E480760DC
:10580000BFF34F8F001F43F6FF7800681B4BC0F3B8
:105810004E31C0F3C90208EA4117104647EA807CBE
:10582000C3F800C0401EF9D2491EF4D2BFF34F8F17
:10583000BFF36F8F00E0241D58460121FBF7B2FB38
:10584000B442C8D301215846FBF7ACFB50B10CE081
:1058500001205246FDF72AFB38B928680AF1200AD0
:10586000203028602968B142F2D3FDF707FB07B06A
:10587000BDE8F08F0000F01F84ED00E074EF00E061
:105880007047FDF799BC000070B5CCB04C212FA833
:10589000FAF770FD202142A8FAF76CFDBC2168469A
:1058A000FAF768FD0220FDF777FD20480024204923
:1058B000026842F44042026002680A6842F0010253
:1058C0000A60096801F001014A9101688904FCD568
:1058D0000DF1E40C0521C022022038908CE807006D
:1058E0003C9008263D90C3033E900125CDE93F64DE
:1058F00041942FA8CDE92F53FEF736FD40203F21DC
:105900000301CDE945600322CDE9470342AB49904D
:1059100042A883E816000421FEF72EFB0095684696
:105920001E94FDF7CDFE4CB070BD00001848025823
:105930002C040058214A30B5214914680020204B1E
:1059400044F47004146010330A681E4D42F00102E2
:105950000A6018600A681A4B2A400A6018331C1D36
:10596000251D174A186028322060131D28601C1D51
:10597000251D10602A1D1860131D20601C1D286045
:10598000251D10601860206028600A680C4B0E4CC2
:1059900022F4802260330A60186020686FF30F00E1
:1059A000B0F1005F03D209490120C1F808014FF0AE
:1059B000006002498039086030BD000088ED00E0D9
:1059C000004402587FEDF6EA0010005C00800051B0
:1059D0002DE9F047274B4FF0804A274D0268984247
:1059E000264E274F274C09D0504507D0A84205D056
:1059F000B04203D0B84201D0A04205D1D1F804C0D2
:105A000022F070024CEA0202DFF87CC0DFF87C80F2
:105A10009842DFF87C900FD050450DD0A8420BD0B3
:105A2000B04209D0B84207D0A04205D0604503D0AB
:105A3000404501D0484503D1CD6822F440722A4345
:105A40004D6922F080022A43026098428A68C2624D
:105A50000A68826207D0A04205D0604503D0404565
:105A600001D0484501D10969016301214161BDE8C7
:105A7000F0870000000001400004004000080040E2
:105A8000000C00400004014000400140004401407F
:105A90000048014010B5046A012301F01F018B404A
:105AA0009C4304628A40016A1143016210BD42EACC
:105AB000032283680A4323F47F410A4382607047CC
:105AC000034B82681A400A4342F007018160704725
:105AD0008FFFCFFF2DE9F04F026ADFF88880DFF8F3
