:020000040800F2
:10000000785A0024BD020008533900086F350008F3
:10001000513900087F040008954C000800000000DA
:10002000000000000000000000000000053D000886
:10003000810400080000000055390008073D000851
:10004000D7020008D7020008D7020008D70200082C
:10005000D7020008D7020008D7020008D70200081C
:10006000D7020008D7020008D7020008D70200080C
:10007000D7020008D7020008D7020008D7020008FC
:10008000D7020008D7020008D7020008D7020008EC
:10009000D7020008D7020008D7020008D7020008DC
:1000A000D7020008D7020008D7020008D7020008CC
:1000B000D7020008D7020008D7020008D7020008BC
:1000C000D7020008D7020008D7020008D7020008AC
:1000D000D7020008D7020008D7020008D70200089C
:1000E000D7020008D702000800000000D70200086D
:1000F000D7020008D7020008D7020008D70200087C
:10010000D7020008D7020008D7020008D70200086B
:10011000D7020008D7020008D7020008D70200085B
:10012000D7020008D7020008D7020008D70200084B
:10013000D702000885040008D7020008D70200088B
:1001400000000000000000000000000000000000AF
:10015000D7020008D7020008D7020008D70200081B
:10016000D7020008D7020008D7020008D70200080B
:10017000D7020008D7020008D702000800000000DC
:10018000D7020008D7020008D7020008D7020008EB
:10019000D7020008D7020008D7020008D7020008DB
:1001A000D7020008D7020008D7020008D7020008CB
:1001B000D7020008D7020008D7020008D7020008BB
:1001C000D7020008D7020008D7020008D7020008AB
:1001D000D7020008D7020008D7020008D70200089B
:1001E000D7020008D7020008D7020008D70200088B
:1001F000D7020008D7020008D7020008D70200087B
:10020000D7020008D7020008D7020008D70200086A
:10021000D7020008D7020008D7020008D70200085A
:10022000D7020008D7020008D7020008000000002B
:10023000D7020008D702000800000000D70200081B
:10024000D7020008D7020008D7020008D70200082A
:10025000D7020008D7020008D7020008D70200081A
:10026000D7020008D7020008D7020008D70200080A
:10027000D7020008D7020008D702000800000000DB
:10028000D7020008D7020008D702000800000000CB
:1002900000000000D7020008DFF80CD000F0B2F830
:1002A0000048004789730008785A002430BF72B6AE
:1002B000704762B6704780F30888704706488047E9
:1002C00006480047FEE7FEE7FEE7FEE7FEE7FEE73B
:1002D000FEE7FEE7FEE7FEE7B93D000899020008E9
:1002E0002DE9F05F0546002092469B46884606466B
:1002F000814640241BE0284641464746224600F0FE
:1003000070F853465A46C01A914110D31146184608
:10031000224600F057F82D1A67EB01084F46224697
:100320000120002100F04EF817EB00094E41201E7D
:10033000A4F10104DFDC484631462A464346BDE8C5
:10034000F09F40EA01039B0703D009E008C9121F90
:1003500008C0042AFAD203E011F8013B00F8013B7F
:10036000521EF9D27047D2B201E000F8012B491EAB
:10037000FBD270470022F6E710B513460A46044642
:100380001946FFF7F0FF204610BD421C10F8011B74
:100390000029FBD1801A704730B50446002003467F
:1003A00000E05B1C934203D2E05CCD5C401BF8D0C4
:1003B00030BD034611F8012B00F8012B002AF9D1BA
:1003C00018467047202A04DB203A00FA02F1002088
:1003D00070479140C2F1200320FA03F31943904083
:1003E0007047202A04DB203A21FA02F000217047EE
:1003F00021FA02F3D040C2F120029140084319468D
:1004000070470000064C074D06E0E06840F001032D
:1004100094E8070098471034AC42F6D3FFF740FF4A
:1004200074E4000894E4000870B58C1810F8015BBF
:1004300015F0070301D110F8013B2A1106D110F87D
:10044000012B03E010F8016B01F8016B5B1EF9D181
:100450002B0705D40023521E0DD401F8013BFAE707
:1004600010F8013BCB1A921C03E013F8015B01F872
:10047000015B521EF9D5A142D8D3002070BDFEE722
:1004800070470000014800F0D4BD0000280200249D
:1004900070B5A2B0064600244FF4C36001258DF864
:1004A0000F5002238DF81D4069038DF80E500994FA
:1004B0008DF81F400D9020208DF804508DF832509B
:1004C00042028DF8605006914FF040518DF838404F
:1004D00002948DF861408DF81C408DF828408DF80D
:1004E00062408DF80C400B948DF81E500F948DF8DF
:1004F000115012948DF840408DF831408DF8124023
:1005000014948DF856401790304616938DF820506D
:1005100005928DF854408DF830408DF810500091C0
:1005200069468DF80D408DF8554011948DF84C506A
:1005300000F01CFA1B9568058DF871404FF40671A8
:100540008DF8685019948DF880408DF870401F9098
:100550008DF878401D9030468DF88140219119A981
:1005600000F0AAF922B070BD0020704701F072BB04
:10057000024810B501F018F8002010BD2802002430
:1005800013460A460146044810B500F0CFFF002884
:1005900001D04FF0FF3010BD2802002413460A4658
:1005A0000146044810B501F001F9002801D04FF0D0
:1005B000FF3010BD280200242DE9F047836A00F1C6
:1005C000180592468C6800271E4655F82320D2F85D
:1005D0000CC0BCF1000F73DB91F800C05FEA4C7CEB
:1005E00043D5D2F80CC0D1F824806FF30F0C4CEA3D
:1005F000080CC2F80CC0D2F80CC04CF4803CC2F815
:100600000CC0D0F800C0DCF8608048F48018CCF84A
:10061000608091F800C05FEA0C7C26D5B1F82C8090
:10062000D2F808C068F31F4CC2F808C0D2F80CC05A
:100630004CF4003CC2F80CC0D2F80CC0D1F83080A9
:100640002CF4402C4CEA080CC2F80CC0D0F800C0C6
:10065000DCF8648048F48018CCF864800068D0F836
:1006600050C04CF0806CC0F850C00878C0060BD564
:100670009068D1F818C06FF30D0040EA0C0090604C
:10068000D06840F08060D060087810F0140F18D067
:10069000D0685B1C042B40F08040D060D06840F0F4
:1006A0000040D06000D31B1F012755F82320D068DD
:1006B000002806DA55F82600C16821F00041C16023
:1006C00099E0206810609068D4F804C06FF30D00C2
:1006D00040EA0C009060DFF8DCC17F1CA0684FF09E
:1006E000000950B1044600685060D2F80880A08824
:1006F00008EA0C0848EA004004E0C2F80490906858
:1007000000EA0C0090600878C006D06812D5B1F8F5
:10071000208020F4F00040EAC840D060D068D1F8D2
:100720001C806FF3110040EA0800D060D06840F4EC
:1007300080201BE0D1F804806FF30E0040EA08002F
:10074000D0600878C00707D0D068D1F8148020F4B2
:10075000403040EA0800D0600878800607D5D068AD
:10076000D1F8108020F0406040EA0800D06008789E
:10077000400707D59068D1F8288020F4404040EA2F
:1007800008009060D06840F00050D060D06820F041
:100790008040D060D06840F00040D060087880078A
:1007A00074D5D068D1F80C8020F0607040EA080061
:1007B0006BE0D0685B1C042B20F08050D06000D32D
:1007C0001B1F55F82320D06820F00050D060D0685F
:1007D000002813DA55F8261000200AE0CA68761CB3
:1007E000042E22F00042CA6000D3361F401C55F888
:1007F0002610B842F2D30220BDE8F087A468206832
:1008000010609068D4F804806FF30D0040EA08008F
:100810009060A0687F1C50B1044600685060D2F818
:100820000880A08808EA0C0848EA004004E0C2F802
:100830000490906800EA0C0090600878C006D068C8
:100840000AD5D1F81C806FF3110040EA0800D0608F
:10085000D06840F4802010E0D1F804806FF30E00DF
:1008600040EA0800D0600878C00707D0D068D1F807
:10087000148020F4403040EA0800D060D06840F096
:100880000040D060D06820F08040D060A068002890
:100890008FD19068BAF1000F02D040F0004001E023
:1008A00020F000409060D06840F08050D060002080
:1008B0002B61A1E7FFFF00C0F0B5026847F6020E0A
:1008C000274E4DF2010702F58052264DD1F800C0A7
:1008D0001368254C23EA0E0343EA0C0313600B79DB
:1008E000026891F80CE002F58052D1F808C01B03B1
:1008F00043EACE3343EA0C03D2F804C02CEA070CD7
:100900004CEA030CC2F804C002684F7B02F5805227
:100910000B6A43EA0747D2F8003133403B43C2F841
:10092000003102680B7D02F5805291F81DC00F69FD
:10093000D2F804611B0143EA0C332E403B431E43B3
:10094000C2F8046100680B7F00F580508A69D0F816
:10095000081142EAC37221401143C0F80811F0BDEA
:1009600000C0FEFFEFEFC0FFFFFFC07FF0B50B79C7
:100970000C7B0F688A68DB064D7B43EAC4533A431D
:100980008E7B1A43CF7B91F810C042EA855242EA2F
:100990004652BCF1000F42EA07537CD000224C7C47
:1009A000002C43EAC24278D000238E7C0D7F42EABD
:1009B00043428F7FD1E9053442EA06424E7F1A4313
:1009C000224342EA0532002F42EAC62466D00022C2
:1009D000CD7F91F8203044EA8222002B42EA452262
:1009E0007ED0002504684B6A42EA052291F82870FF
:1009F000464D1A43CE6A236842EA071232432B401F
:100A00001343236091F83C2091F8383091F830502E
:100A100091F83140520642EA036291F8326042EAAC
:100A2000854242EA4444BEB300220368384E4F6B0D
:100A300044EA02425C683A4340F20F1534401443E2
:100A40005C60036891F840604C6CDA6844EA062404
:100A5000AA432243DA6091F854300A6D91F84C4071
:100A600042EA4302ECB300240368B1F848504FF661
:100A70000D76E7011C6F47EA05452A4334401443CD
:100A80001C67026891F8563091F8555052F8904F13
:100A900043EA450303E02BE032E02BE02CE024F0B6
:100AA00003041C43146002688C6DD2F8003D23F0EF
:100AB00072032343C2F8003D91F86020CC6D1AB355
:100AC0005FF00003026891F8615091F8621044EA07
:100AD0008310D2F8303D2C0144EAC101084301E003
:100AE0000CE00FE023F07B010143C2F8301DF0BDA4
:100AF000012254E7012358E7012269E7012571E744
:100B0000012292E70124AFE70123DBE783800400A1
:100B10000080F8C07047000030B50424124BCD07A8
:100B200044EA00200BD0DC6824F4E664DC60DC6876
:100B300014430443DC60DC6844F08004DC60890713
:100B400011D5D3F80C1121F4E661C3F80C11D3F8D8
:100B50000C1111430143C3F80C11D3F80C0140F000
:100B60008000C3F80C0130BD00200052CB431E4A68
:100B70009B0722D0CB0740F008000AD0D36823F0AF
:100B80003003D360D3680343D360D36843F080035A
:100B9000D360890710D5D2F80C1121F03001C2F8CA
:100BA0000C11D2F80C110143C2F80C11D2F80C014F
:100BB00040F08000C2F80C017047D16821F030018C
:100BC000D160D2F80C1121F03001C2F80C11D168BB
:100BD0000143D160D2F80C110143C2F80C119069A5
:100BE00040F0100090617047002000522DE9F0475E
:100BF0000E46804601F02EF8012E814601D0294D87
:100C000000E00425DFF8A0A0284C05EA0A0777B326
:100C1000D4F8100125EA00004000D0B1012E2BD0FD
:100C20002349D4F81001084040F00040410027D08B
:100C300020498A6910EA0A0F42EA00028A6101D15A
:100C4000606103E020F00040C4F814010120BDE819
:100C5000F087B8F1FF3FDAD000F0FCFFA0EB09010C
:100C6000414502D8B8F1000FD1D10320EFE7FFE7EB
:100C7000206925EA0000D0E70F4920690840D5E740
:100C8000012E4FF4803007D0D4F81011C90301D5DC
:100C9000C4F814010020DAE72169C903FAD56061BC
:100CA000F8E7000004000080F0FF10E00020005290
:100CB0000000EE97440400240000EE1770B50446CF
:100CC00000F0C8FF0546601C02D0044800780444C8
:100CD00000F0C0FF401BA042FAD370BD7400002496
:100CE00000F12C02F0B5D2E9053452F8231024B1FA
:100CF000D56905B1641C002523E00120F0BD0F6912
:100D00004FF080760F60CE604E692EB14E698E60D6
:100D1000CE6846F00076CE60CE6846F00046CE60E3
:100D2000166A1EB1CE6846F08046CE609669761E81
:100D3000AE4205D95B1C042B00D31B1F52F82310B5
:100D40006D1CA542DBD30068002300F58050C0F87D
:100D5000281118469361F0BD704710B500EB81046F
:100D6000E46A0AB1042903D30121C165084610BD14
:100D700022602261E06840F08070E0602BB1A360E7
:100D80006361E06840F00070E060E06840F00040BF
:100D9000E060002010BD704700297DD00268126815
:100DA00002F00C02CA6202681268C2F3001281F8F3
:100DB00028200268126802F060024A620268126823
:100DC00042F30022521C81F8202002681268C2F30C
:100DD0004022CA770268126842F38022521C8A7746
:100DE00002681268C2F3C0224A7702681268C2F32E
:100DF00000320A770268126802F400528A610268BF
:100E0000126802F480424A6102681268C2F300422A
:100E10008A740268126842F34042521C4A740268A3
:100E2000126842F3C042521C0A7402681268C2F38C
:100E30000052CA7302681268C2F340528A73026891
:100E40001268C2F380524A7302681268C2F3C05239
:100E50000A730268126802F0E0628A60026812682F
:100E6000C2F3C0620A710268126802F0E0420A60CE
:100E700002685268C2F30D024A630268526842F384
:100E80000042521C81F8322002685268C2F340428C
:100E900081F83120026800E062E05268C2F38042CB
:100EA00081F8302002685268C2F3006281F838206D
:100EB00002685268C2F34462CA630268D268C2F32D
:100EC000002281F840200268D26802F00F024A64D2
:100ED0000268126FC2F3400281F854200268126F58
:100EE00042F3C012521C81F84C200268126F02F0CB
:100EF00070020A650268126F120C8A640268D2F8E6
:100F0000902002F0010281F856200268D2F8902069
:100F1000C2F3400281F855200268D2F8002D02F099
:100F200072028A650268D2F8302D02F02302CA6587
:100F30000268D2F8302DC2F3C00281F86220026844
:100F4000D2F8302DC2F3001281F861200068D0F889
:100F5000300D40F38010401C81F860000020704785
:100F600001207047F0B50C00016C00F12C0605461D
:100F70004FF0000756F8210002D0B2691AB109E01B
:100F80000120E86539E0284600F0EAF9A0B371696C
:100F900056F82100002215E0036923606B69636045
:100FA000436923B1A468436923606B696360C068C7
:100FB000491C0429C0F30E0700D3091FA468521C62
:100FC00056F82100B3695B1E9342E5D8C1680269F7
:100FD00022606A69C1F30E01C91B8A4201D36160B4
:100FE00008E0436943B16260A268406910606869C3
:100FF000081A50600020F0BDFFE70120FBE770B544
:1010000000F12C040D46D4E9056111B900F0A8F9EE
:1010100068B1A069761E3044042800D3001F54F83C
:101020002000C068C0F30E002860002070BD0120C1
:1010300070BD70B50446006800F58050D0F86011AE
:1010400049060DD5D0F83401400609D5204600F0F8
:101050009FFA206848F2400100F58050C0F8601106
:10106000206800F58050D0F86011C9070DD0D0F885
:101070003401C00709D0204600F096FB206848F2F2
:10108000010100F58050C0F86011E026206800F5ED
:101090008050D0F86011490425D5D0F834114904A6
:1010A00021D5E16D41F00801E165D0F86011C90476
:1010B0000DD5D0F8601141F2021211402166D0F82E
:1010C000341121F44041C0F83411666508E0D0F8CD
:1010D00060214FF4CD4102F4CD422266C0F8601188
:1010E0002046FFF739FE20680025D0F8B010C1F384
:1010F0004131032907D1D0F8B80060666665204603
:1011000000F095F965662068D0F8B010C90608D5DA
:10111000D0F8C00000F06000A066204600F004FA9D
:10112000A5662068D0F8B010890608D5D0F8C000B0
:1011300000F00F00E0662046FFF72DFEE5664FF059
:10114000B040D0F8A810490206D54FF48001C0F88D
:10115000A810204600F029FB70BD0000F8B504007F
:1011600002D0606D10B104E00120F8BD204600F00F
:101170005FF9232060657048016841F00201016059
:10118000006800F002000090207A08B14FF40000DF
:1011900002F09AF8206800F58050016841F00101E2
:1011A000016000F057FDE02605464FF4FA7706E0AF
:1011B00000F050FD401BB84201D9042049E02068EE
:1011C00000F580500068C007F2D12068D0F8000216
:1011D00020F4706501F046FD584A594902448A429C
:1011E00002D245F4007516E0564A574902448A4235
:1011F00002D245F440750EE05449554A01449142EB
:1012000009D35449544A0844904202D245F48075A7
:1012100001E045F480652068C0F8005201F022FD2D
:101220004E4A2168B0FBF2F0401EC1F8DC002046B7
:10123000FFF72EF9206800F58050D0F8001121F456
:10124000E01141F40021C0F800116169880703D062
:101250000120E065666587E7206847F6FE7300F5C4
:101260008050D0F808219A4342EA4101C0F80811A1
:1012700000210846E26800EB400504EB800302EB26
:10128000C502116051609160D160401C04289A61D0
:10129000F0D3A1620323206800F58050C0F82C3100
:1012A0002068E26800F58050C0F814212068E268E8
:1012B00000F58050C0F820215FF00002206902EBA9
:1012C000420604EB820500EBC600016041608160CC
:1012D000C16001614161521C042AE862EED3E163FE
:1012E00021646164E164A164206800F58050C0F865
:1012F00030312068226900F58050C0F81C21226836
:10130000206902F5805200F5D860C2F82801D4E9BE
:1013100000208088C2F8000360682368D0F801507C
:101320000278102042EA0522C3F80423E1656065D3
:10133000A0650020F8BD0000F444025800D3CEFEA2
:10134000C0E1E40040F1E9FD40787D0100796CFCEA
:10135000005A6202001F0AFA80F0FA0240420F00AF
:1013600070B5C16B0025466C2C302A462B4650F8D0
:1013700021404EB3002070BDE6686D1CF6001AD502
:10138000521C012A00D10B46491C042900D3091F15
:1013900050F82140E568002D08DBE468640005D5BD
:1013A0000124C461491C042900D3091F8261C0E9DA
:1013B0000413012070BDE468A40011D50B46491C3C
:1013C00001220FE050F82140E668002E01DB042DD9
:1013D000D2D34AB350F8231000244FF0807521E097
:1013E000491C521C0429EDD3091FEBE70E690E605E
:1013F000CD604E692EB14E698E60CE6846F00076A3
:10140000CE60CE6846F00046CE60066A1EB1CE6859
:1014100046F08046CE605B1C042B00D31B1F641C6F
:1014200050F823109442E1D300218161A2E7704774
:101430002DE9F04186B0044614216846FEF79AFF74
:1014400034492068884262D13348016841F4004140
:101450000160016801F400410591016841F48031A7
:101460000160016801F480310591016841F40031A7
:101470000160006800F400300590274808300168DA
:1014800041F004010160016801F004010591016867
:1014900041F001010160016801F00101059101685D
:1014A00041F040010160006800250224009400F032
:1014B0004000DFF868800B266946CDE90145CDE99B
:1014C00004604046039500F0C1FA03270496862085
:1014D00069468DE8B100124800F0B8FA3020049651
:1014E0008DE8B1006946404600F0B0FA4FF4605014
:1014F00004968DE8B1000B48694600F0A7FA002277
:101500003D20114600F06AFC3D2000F059FC06B079
:10151000BDE8F08100800240D8440258000802581B
:101520000000025800180258704700002DE9F041F1
:10153000044600681E46D0F80032DB0719D1D0F807
:10154000003223F0787343EA415121F4F81141EA63
:10155000024141F00D01C0F8001200F07BFB4FF496
:101560007A77054608E000BF00F074FB401BB842E4
:1015700002D90120BDE8F0812068D0F80002C00740
:10158000F2D12068D0F8040280B230600020F1E788
:10159000704710B511B1826D102A01D0012010BD25
:1015A000FFF7E4F9002010BD70B505460068D0F8DB
:1015B000000220F4706401F055FB1149114A014406
:1015C000914202D244F4007416E00F4A0F490244DB
:1015D0008A4202D244F440740EE00D4A0D4902449E
:1015E0008A4209D30C4A0D491044884202D244F47D
:1015F000807401E044F480642868C0F8004270BD43
:1016000000D3CEFEC0E1E40040F1E9FD40787D0169
:1016100000796CFC005A6202001F0AFA80F0FA029C
:1016200010B5416D102901D0012010BD2321416565
:101630001022016822230C6844F002040C60016847
:101640000C6844F001040C600168D1F8004D44F0CE
:101650000104C1F8004D016801F58051D1F8044141
:1016600044F00104C1F80441016801F58051D1F84A
:10167000084144F00104C1F80841016801F58051B6
:10168000D1F8604144F48174C1F8604142658365DA
:10169000002010BD416D49B323214165102201682E
:1016A00001F58051D1F8043123F00103C1F8043170
:1016B000016801F58051D1F8083123F00103C1F828
:1016C000083101680B6823F001030B600168D1F851
:1016D000003D43F00103C1F8003D01680B6823F0B1
:1016E00002030B604265826500207047012070474D
:1016F0002DE9F0419046044619B1606D102804D0E0
:1017000050E0E06D40F0010007E000222046FEF7C7
:1017100053FF20B1E06D40F00200E06542E0A06AB6
:1017200004EB8001401C04288D69A06201D3001FD6
:10173000A0620146206804EB810100F580508969B0
:10174000C0F8201100F086FA102706461EE0206837
:1017500000F58050D0F86001C0040CD5E06DE021A8
:1017600040F00800E065206800F58050D0F8600186
:101770002066616516E0B8F1FF3F07D000F06AFA15
:10178000811B414509D8B8F1000F06D0E868002850
:10179000DDDB67650020BDE8F081E06D40F004000E
:1017A000E06567650120F6E77047704770B504464D
:1017B0000068D0F80052ED071FD1D0F800029BB2AC
:1017C000124D20F07870C5F8043240EA415020F400
:1017D000F81040EA024020F00C00001D40F001002B
:1017E000C5F8000200F036FA4FF47A76054606E0B6
:1017F00000F030FA401BB04201D9012070BD2068D2
:10180000D0F80002C007F3D170BD00000080024094
:101810002DE9F05F0446414888460026017D0129F4
:101820001AD0012202758146B246C0F818A020796C
:10183000C00706D001214CF25030FFF7D7F900B1B4
:101840000126207980070AD502214CF25030FFF79B
:10185000CDF920B101265DE00220BDE8F09F6EBB0E
:1018600020682F4D012807D04FF0FF31C8F8001035
:10187000A76840F2047B48E061682069FFF776F9C9
:101880002079C0070AD001214CF25030FFF7AEF9A1
:1018900000B10126E86820F00800E86020798007A0
:1018A00038D502214CF25030FFF7A0F900B10126E3
:1018B000D5F80C0120F00800C5F80C012AE02269D7
:1018C00038466168FFF728F92079C00709D001215F
:1018D0004CF25030FFF78AF9E968064621EA0B011D
:1018E000E960207980070BD502214CF25030FFF7D8
:1018F0007DF9D5F80C11064621EA0B01C5F80C114B
:1019000016B1C8F8007005E07F1CD4E90201084454
:10191000B842D4D8304689F814A09EE74404002485
:10192000002000520A48C16841F00101C160C1684D
:10193000C9070BD0D0F80C1141F00101C0F80C110F
:10194000D0F80C01C00701D000207047012070477B
:10195000002000522DE9F05F2948154608260C4664
:10196000027D012A08D001220275A4F10061B1F5BF
:10197000801F04D2012703E00220BDE8F09F022768
:101980004FF0000A8146C0F818A04CF2503B39468F
:101990005846FFF72BF930BBDFF86880012F40462F
:1019A00024D0D0F80C1141F00201C0F80C1100BF96
:1019B000BFF36F8FBFF34F8F01CD761E16F0FF067A
:1019C00001C4F9D1BFF36F8FBFF34F8F394658462B
:1019D000FFF70CF9012F41460DD0D1F80C2122F070
:1019E0000202C1F80C2189F814A0C6E7C16841F0D1
:1019F0000201C160DCE7CA6822F00202CA60F2E7B5
:101A000044040024002000520D480E4A0E49C368C9
:101A1000DB0704D042604160C368DB070BD1D0F81C
:101A20000C31DB0709D0C0F80421C0F80411D0F84C
:101A30000C01C00701D00120704700207047000052
:101A40000020005223016745AB89EFCD2DE9F84F07
:101A5000714C00234FF0B04E4FF001094FF0030BD3
:101A60004FF00F0AD0E000BF09FA03F812EA0802AB
:101A700074D04D68022D01D0122D0FD1DD085F0703
:101A800000EB850500950E692D6AFF0E0AFA07FC2A
:101A9000BE4025EA0C052E43009D2E625D000F79A5
:101AA00006680BFA05FC07F0030726EA0C06AF40B0
:101AB000374307604E68012E05D0022E03D0112E49
:101AC00001D0122E0FD18668CF6826EA0C06AF40EF
:101AD0003743876046680F7926EA0806C7F3001780
:101AE0009F4037434760C6688F6826EA0C06AF40C0
:101AF0003743C7604D68ED0030D5484D2E6846F03D
:101B000002062E602D6823F0030606F1B04605F0AC
:101B1000020500959D072F0FD6F80854DFF80081C5
:101B20000AFA07FC404525EA0C0502D14FF0000CEB
:101B300041E0DFF8F0C0604502D14FF0010C3AE01F
:101B4000DFF8E4C0604502D14FF0020C33E0DFF86B
:101B5000DCC0604503D14FF0030C2CE053E0DFF80C
:101B6000D0C0604502D14FF0040C24E0DFF8C4C0BF
:101B7000604502D14FF0050C1DE0DFF8BCC06045A8
:101B800002D14FF0060C16E0DFF8B0C0604502D17C
:101B90004FF0070C0FE0DFF8A8C0604502D14FF00E
:101BA000080C08E0DFF89CC0604502D14FF0090C3A
:101BB00001E04FF00A0C0CFA07FC4CEA050CC6F8E1
:101BC00008C425684E6825EA0205F60300D51543CA
:101BD000256065684E6825EA0205B60300D5154301
:101BE00065604F687546DEF80060FF0226EA02066F
:101BF00000D516432E604F686E68BF0226EA0206C3
:101C000000D516436E605B1C0A6832FA03F57FF458
:101C10002BAFBDE8F88F000080000058F444025854
:101C2000000002580004025800080258000C025834
:101C3000001002580014025800180258001C0258E4
:101C4000002002580024025801480068000C704728
:101C50000010005C01488068704700007400002498
:101C60000248816802781144816070477400002442
:101C7000032010B500F0D2F801F02EF80E490F4AFB
:101C80000F4B0C68C4F30324145D04F01F04E04000
:101C90001860096801F00F01515C01F01F01C84094
:101CA00008490860002000F00FF808B1012010BDBD
:101CB00000F078F8002010BD18440258BCE100087C
:101CC000800000248400002470B50D4D044628785F
:101CD000A0B14FF47A71B1FBF0F00A490968B1FB89
:101CE000F0F001F0FBFA48B9102C07D2002221468F
:101CF000501E00F073F800206C6070BD012070BDB4
:101D00007400002480000024F0B5154C4378211D98
:101D10000A1D23600378F3B143680B60057BC67A24
:101D2000817A437B2D07847B45EA0665C77B90F863
:101D300009C0067A90F800E045EAC14040EA8340D5
:101D400040EA444040EA074040EA0C2040EA4600AE
:101D500040EA0E0001E0002008601060F0BD0000C5
:101D600098ED00E0BFF35F8F044800210368034A49
:101D700023F48033036070321160704724ED00E07B
:101D8000074A40F00100064970321060086840F4CC
:101D900080300860BFF34F8FBFF36F8F7047000034
:101DA00024ED00E0054808B5016841F0020101603A
:101DB000006800F00200009008BD0000F4440258E2
:101DC000002809DB410900F01F028900012001F110
:101DD000E0219040C1F80001704700000E4BF0B4C4
:101DE0001B680D46C3F30223C3F10706042E00D976
:101DF0000426191D072901D2002300E0DB1E01245F
:101E000004FA06F19C40491E2940641E9940144082
:101E10002143F0BC02F064BF0CED00E0064900F085
:101E2000070210B54FF6FF040868044B204040EA53
:101E300002201843086010BD0CED00E00000FA0518
:101E4000124970B50A68520706D40A6802F0070200
:101E5000824201D0012070BD0A6822F007020243CD
:101E60000A60FFF7F7FE094D4FF47A760446083D05
:101E700007E000BFFFF7EEFE001BB04201D90320D0
:101E800070BD28688004F5D5002070BD0C4802584C
:101E900010B500F021FF064A06491268064BC2F34E
:101EA00003229A5C02F01F02D040086010BD0000BF
:101EB0001844025880000024BCE1000810B500F06E
:101EC000D1FE05490968054AC1F30211515C01F0D0
:101ED0001F01C84010BD000020440258BCE10008AA
:101EE000494930B5484C0B1D0A68143409681D680F
:101EF000246802F0030305F01002C1F30531C4F3B6
:101F0000CC04002914FB02F200EE102AF8EE400A7D
:101F100075D03F4A9FED3D1AB7EE000A6BB1DFED79
:101F20003D1A012B01D0022B64D002EE101A116869
:101F3000F8EE422A81EEA22A21E0334C283C2368A5
:101F40009B0612D5344B246801EE901A1168C4F335
:101F5000C104F8EE612AE34001EE903AC1F30801B2
:101F6000F8EE611A81EEA22A0BE001EE901ADFED85
:101F70002B2A00BFF8EE611A116882EEA12AC1F384
:101F8000080101EE901A1168F8EE611A40EE811A0C
:101F900071EE800A62EE200AC1F3462101EE101AAA
:101FA000B8EE411A31EE001AC0EE811ABCEEE11A09
:101FB00080ED001A1168C1F3064101EE101AB8EE67
:101FC000411A31EE001AC0EE811ABCEEE11A80ED22
:101FD000011A1168C1F3066101EE101AB8EE411A38
:101FE00031EE000A80EE801ABCEEC10A80ED020AD2
:101FF00030BD04E001EE901ADFED092ABAE70021B6
:10200000016041608160F3E7284402580000003914
:10201000384402580024744A0090D0030024744CC1
:1020200020BCBE4B494930B5484C0B1D0A681C34D6
:1020300009681D68246802F0030305F48072C1F387
:102040000551C4F3CC04002914FB02F200EE102A5F
:10205000F8EE400A75D03F4A9FED3D1AB7EE000AF0
:102060006BB1DFED3D1A012B01D0022B64D002EEE3
:10207000101A1168F8EE422A81EEA22A21E0334CB0
:10208000283C23689B0612D5344B246801EE901A35
:102090001168C4F3C104F8EE612AE34001EE903AFE
:1020A000C1F30801F8EE611A81EEA22A0BE001EEFD
:1020B000901ADFED2B2A00BFF8EE611A116882EE4C
:1020C000A12AC1F3080101EE901A1168F8EE611A15
:1020D00040EE811A71EE800A62EE200AC1F34621B9
:1020E00001EE101AB8EE411A31EE001AC0EE811A54
:1020F000BCEEE11A80ED001A1168C1F3064101EE51
:10210000101AB8EE411A31EE001AC0EE811ABCEE78
:10211000E11A80ED011A1168C1F3066101EE101A8F
:10212000B8EE411A31EE000A80EE801ABCEEC10A08
:1021300080ED020A30BD04E001EE901ADFED092ABD
:10214000BAE70021016041608160F3E7284402584A
:1021500000000039404402580024744A0090D00323
:102160000024744C20BCBE4B2DE9FC5F044650F8A3
:10217000241B002500902E460801FE4FDFF8F8933F
:102180001DD5606E50B1B0F5801F0CD0B0F5001FAA
:102190000ED0B0F5401F1DD001250FE0386840F487
:1021A0000030386016E00221201D01F0D5FB03E06D
:1021B0000098022101F060FC05000BD02E4620881B
:1021C000C00523D5606D05281ED2DFE800F00C1194
:1021D000161B1B00626ED9F8001021F44011114348
:1021E000C9F80010EBE7386840F40030386009E0C7
:1021F0000021201D01F0B0FB03E00098002101F058
:102200003BFC05466DB100E001252E462088800587
:1022100028D5A06D80281ED00CDC90B140280ED1AE
:1022200014E0626DD9F8001021F007011143C9F8DC
:102230000010EBE7C02813D0B0F5807F10D0012547
:102240000FE0386840F40030386009E00021201DBC
:1022500001F082FB03E00098002101F00DFC05462F
:1022600095B12E462088DFF81083400508F1080854
:102270002CD5D4F8A400B0F5800F20D00DDCA0B18F
:10228000B0F5001F0FD115E0A26DD9F8001021F4B0
:10229000E0711143C9F80010E4E7B0F5C00F13D0A6
:1022A000B0F5000F10D001250FE0386840F4003081
:1022B000386009E00021201D01F04EFB03E000988A
:1022C000002101F0D9FB054675B12E462088000596
:1022D0002DD5D4F8A800B0F1007F21D00EDCA8B134
:1022E000B0F1807F10D116E0D4F8A420D8F8001007
:1022F00021F460011143C8F80010E7E7B0F1407F16
:1023000013D0B0F1806F10D001250FE0386840F491
:102310000030386009E00021201D01F01DFB03E0C2
:102320000098002101F0A8FB05466DB12E462068FB
:1023300080011FD5A06CD8B110280FD0202812D052
:10234000302815D0012514E0D4F8A820D8F80010C2
:1023500021F0E0611143C8F80010E8E7386840F464
:102360000030386004E00221201D01F0F5FA054636
:102370006DB12E462088C0042BD5E06DB0F5005F0E
:1023800020D00DDCA0B1B0F5805F0FD115E07A4808
:10239000A26C001F016821F0300111430160E9E7E0
:1023A000B0F5405F13D0B0F5804F10D001250FE09D
:1023B000386840F40030386009E00021201D01F049
:1023C000CBFA03E00098002101F056FB054685B1E9
:1023D0002E462088800429D5206EB0F5403F23D0BA
:1023E00010DC08B3B0F5803F14D0B0F5003F0FD13A
:1023F00015E0E26DD9F8001021F4E0411143C9F86D
:102400000010E6E7B0F5802F0ED0B0F5A02F0BD06E
:1024100001250AE00121201D01F09EFA03E0009849
:10242000012101F029FB05468DB12E46208840048C
:102430002AD5D4F8AC00B0F1405F23D010DC08B34B
:10244000B0F1805F14D0B0F1005F0FD115E0226EC3
:10245000D9F8001021F4E0211143C9F80010E5E794
:10246000B0F1804F0ED0B0F1A04F0BD001250AE0A3
:102470000121201D01F070FA03E00098012101F014
:10248000FBFA05466DB12E46208800041FD5E06E8C
:10249000D8B1B0F1805F0ED0B0F1005F10D001254F
:1024A00014E0D4F8AC20D8F8001021F0E04111433A
:1024B000C8F80010E8E7386840F40030386004E0FD
:1024C0000121201D01F048FA05466DB12E46206815
:1024D000C0011ED5606CD0B101280ED0022811D0E9
:1024E000032814D0012513E0E26ED9F8001021F082
:1024F00040511143C9F80010E9E7386840F4003052
:10250000386004E00221201D01F026FA054685B15D
:102510002E462068DFF85CB04002ABF11C0B57D5AB
:102520001648016841F480710160FFF793FB824611
:102530000EE01148626C001F016821F00301114395
:102540000160E6E7FFF786FBA0EB0A0064283DD8B0
:102550000A480068C005F5D57DBBDFF81CA0B4F8BB
:10256000B0100AF1200ADAF8000001F4407100F41A
:10257000407005E02C44025850440258004802586C
:10258000884211D0DAF80010DAF8002021F4407106
:1025900042F48032CAF80020DAF8002022F48032B7
:1025A000CAF80020CAF80010D4F8B000B0F5807F57
:1025B00021D1FFF74FFB019019E008E0FFF74AFB3C
:1025C0000199411A41F28830814210D903252E46E3
:1025D0002078DFF82CA4C0073DD0A06F182838D091
:1025E00026DC80B3082829D0102825D12CE0DAF881
:1025F00000008007E2D5D4F8B010C1F30120032811
:1026000058460DD0016821F47C510160B4F8B02027
:10261000DAF80010C2F30B021143CAF80010D7E732
:10262000F84A036802EA111223F47C511143ECE7E3
:1026300020280ED028280CD001250BE00121201DD8
:1026400001F08AF904E004E00098012101F014FA95
:1026500005465DB12E46207880071ED5606F06289E
:1026600019D2DFE800F0160C11161616A26FDAF870
:10267000001021F038011143CAF80010EBE70121E6
:10268000201D01F069F903E00098012101F0F4F93F
:10269000054675B100E001252E46207840071FD57C
:1026A000D4F89000062819D2DFE800F0160C1116B5
:1026B0001616626FDAF8001021F007011143CAF80C
:1026C0000010EAE70121201D01F046F903E000981F
:1026D000012101F0D1F905469DB100E001252E460A
:1026E000207880062BD5D4F88C00B0F1405F24D040
:1026F00011DC10B3B0F1805F15D0B0F1005F10D1E4
:1027000016E0D4F89020D8F8001021F0070111430A
:10271000C8F80010E4E7B0F1804F0ED0B0F1A04F40
:102720000BD001250AE00021201D01F015F903E07E
:102730000098022101F0A0F905468DB12E462078BF
:1027400040062BD5D4F89800B0F5406F24D011DCAA
:1027500010B3B0F5806F15D0B0F5006F10D116E052
:10276000D4F88C20DAF8001021F0E0411143CAF8C7
:102770000010E4E7B0F5805F0ED0B0F5A05F0BD09D
:1027800001250AE00021201D01F0E6F803E0009891
:10279000022101F071F905468DB12E462078000620
:1027A0002BD5D4F89C00B0F5C04F24D011DC10B369
:1027B000B0F5005F15D0B0F5804F10D116E0D4F819
:1027C0009820D8F8001021F4E0511143C8F8001007
:1027D000E4E7B0F5004F0ED0B0F5204F0BD0012547
:1027E0000AE00021201D01F0B7F803E00098022163
:1027F00001F042F9054665B32E46207800070BD557
:10280000D4F88010B1F5805F2DD0DAF8002022F4E2
:1028100040520A43CAF800202078C0060BD5D4F8ED
:102820009410B1F5807F26D0D8F8002022F44072B1
:102830000A43C8F800202068000330D5D4F8A0006F
:1028400008B3B0F5803F23D0B0F5003F25D0012577
:1028500024E0D4F89C20D8F8001021F46041114302
:10286000C8F80010C9E70098022101F005F9002816
:10287000D2D00126D0E70098022101F0FDF800280F
:10288000D9D00126D7E70021201D01F065F803E02B
:102890000098022101F0F0F8054685B12E46206827
:1028A000400322D5D4F88400B0F5801F11D0B0F5D4
:1028B000001F13D0B0F5401F15D0012514E0D4F847
:1028C000A020D8F8001021F440311143C8F80010BE
:1028D000E5E7386840F40030386004E000980121F2
:1028E00001F0CAF8054655B12E462068C0031CD534
:1028F000E06C70B1B0F5803F10D0012514E0D4F841
:102900008420DAF8001021F440111143CAF80010B5
:10291000EBE7386840F40030386004E00221201D05
:1029200001F01AF80546CDB12E462068800005D585
:102930000098022101F0A0F800B101262068800370
:102940001BD5E06FB8B1B0F5807F10D0B0F5007F37
:1029500011D0B0F5407F0ED001250DE02848E26C83
:102960000838016821F4803111430160DDE73868DF
:1029700040F400303860EDB32E462068C00207D521
:10298000226FD9F8001021F000411143C9F800105E
:102990002068C00008D5D4F8B420DBF8001021F47A
:1029A00080411143CBF800102068800207D5A26E49
:1029B000D9F8001021F080711143C9F80010206887
:1029C00040000CD5DBF8001021F40041CBF80010DA
:1029D000DBF80010D4F8B8201143CBF800102068C1
:1029E000002809DA0648226D0838016821F04051B4
:1029F000114300E008E001607EB10120BDE8FC9FCA
:102A000054440258CFFFFF00E26FDAF8001021F4BF
:102A100040711143CAF80010AFE70020EEE7000054
:102A20002DE9F05F04000F467ED0DFF82482D8F84D
:102A3000000000F00F00B8420CD2D8F8001021F0CE
:102A40000F013943C8F80010D8F8000000F00F005B
:102A5000B84269D120787F4D40070AD5206929689E
:102A600001F07001884204D9296821F07001014306
:102A700029602078774E361D00070AD560693168D5
:102A800001F07001884204D9316821F070010143DE
:102A900031602078C0060AD5A069316801F4E06190
:102AA000884204D9316821F4E06101433160207823
:102AB000DFF8A0B180060BF1080B0CD5E169584690
:102AC000DBF8002002F07002914204D9026822F083
:102AD00070020A430260207880070AD5E0682968FE
:102AE00001F00F01884204D9296821F00F01014348
:102AF00029602078C0073ED05649A2682868183956
:102B000020F47060104328606068022818D0032801
:102B100019D00968012819D0490700294ADADFF8D5
:102B200034A1AAF1080A00E044E0DAF8002022F01B
:102B300007020243CAF80020FFF78CF8814612E032
:102B400009688903E9E709688901E6E7C905E4E757
:102B5000FFF780F8A0EB090141F28830814202D9E9
:102B60000320BDE8F09F6168DAF8000000F038004B
:102B7000B0EBC10FECD1207880070AD5E068296856
:102B800001F00F01884204D2296821F00F010143AE
:102B90002960D8F80010404601F00F01B9420BD966
:102BA000016821F00F0139430160006800F00F0057
:102BB000B84201D00120D4E7207840070AD5206927
:102BC000296801F07001884204D2296821F070015F
:102BD00001432960207800070AD56069316801F057
:102BE0007001884204D2316821F0700101433160E4
:102BF0002078C0060AD5A069316801F4E0618842F6
:102C000004D2316821F4E06101433160207880060C
:102C10000CD5E1695846DBF8002002F070029142C1
:102C200004D2026822F070020A43026000F054F8F5
:102C30002968094AC1F30321515C01F01F01C84012
:102C40000649086006480068BDE8F05FFFF73CB839
:102C50000020005218440258BCE100088000002403
:102C60007800002410B5FFF713F9064A06491268E8
:102C7000064B02F00F029A5C02F01F02D04008607F
:102C800010BD00001844025884000024BCE1000874
:102C900010B5FFF7E7FF05490968054AC1F30211BE
:102CA000515C01F01F01C84010BD00001C440258D7
:102CB000BCE1000810B5FFF7D5FF05490968054AD2
:102CC000C1F30221515C01F01F01C84010BD00009A
:102CD0001C440258BCE10008454970B545480968E4
:102CE000434B103B11F0380208D00111082A03D0E1
:102CF000102A0BD0182A0BD0084670BD1968890617
:102D0000FBD51968C1F3C101C84070BD3A4870BD18
:102D10003749374D18310C1D24350A680968266873
:102D20002D6802F0030406F00102C1F30511C5F39A
:102D3000CC0515FB02F200EE102AB8EE400AE9B30A
:102D40002F4ADFED2E0AB7EE001A6CB1DFED2D1A17
:102D5000012C01D0022C43D002EE101A1068F8EEBC
:102D6000422A81EEA22A1EE01C68A40611D51B6827
:102D700001EE901A1168C3F3C103F8EE612AD8403E
:102D800001EE900AC1F30800F8EE611A81EEA22A62
:102D90000BE001EE901ADFED1C2A00BFF8EE611A7D
:102DA000106882EEA12AC0F3080001EE900AF8EE46
:102DB000611A40EE201A31EE810A00E015E022EEA1
:102DC000000A1068C0F34620401C00EE900AF8EE9E
:102DD000600A80EE201ABCEEC10A10EE100A70BD27
:102DE00001EE901ADFED092AD8E7002070BD00003F
:102DF000104402580090D00340787D010000003953
:102E0000304402580024744A0024744C20BCBE4B49
:102E10002DE9F05F04007DD0FF4F2078FE4D18377C
:102E2000DFF8F493103DC00748D0D9F800003968A6
:102E300000F03800102815D0182803D101F0030045
:102E400002280FD06068B0F5803F12D010B1B0F505
:102E5000A02F18D0286820F480302860286820F43B
:102E6000802009E02868800328D560680028D2D037
:102E700024E0286840F480302860606888B1FEF75C
:102E8000E9FE064609E0286840F480202860F0E763
:102E9000FEF7E0FE801B64286FD828688003F7D512
:102EA0000CE0FEF7D7FE064605E000BFFEF7D2FEB7
:102EB000801B6428F0D828688003F7D4207841F27A
:102EC0000308D54E0C3E800761D5D9F8000039685B
:102ED00010F038000ED0182801D188070AD0E06819
:102EE00080B3296821F0190101432960FEF7B2FE81
:102EF00082462FE02868400702D5E06800288AD083
:102F0000E168286820F0190008432860FEF7A2FE57
:102F1000824607E0D1E000BFFEF79CFEA0EB0A006E
:102F20000228B9D828684007F6D500BFFEF78CFE06
:102F3000404513D82069316821F47C3141EA0030E2
:102F4000306024E011E000BFFEF784FEA0EB0A0031
:102F50000228A1D828684007F6D5E7E7207C316829
:102F600021F0FE4141EA0060EAE7286820F0010014
:102F70002860FEF76FFE824606E0FFE0FEF76AFE7D
:102F8000A0EB0A00022887D828684007F6D42078EA
:102F9000C00657D5D9F80000DFF87CB2396800F0D8
:102FA0003800ABF1040B082810D0182803D101F029
:102FB000030001280AD0E0690028286832D040F0D8
:102FC00080002860FEF746FE824623E02868C005A0
:102FD00023D5E069802870D11FE000BF94F820005D
:102FE000316821F0F84141EA806030602AE000BF9A
:102FF00094F82010DBF8002022F07C5242EA0161B4
:10300000CBF800101EE000BFFEF724FEA0EB0A0084
:10301000022886D82868C005F6D5FEF715FE40457B
:10302000E6D8DBE720F080002860FEF713FE0646B6
:1030300005E000BFFEF70EFE801B022889D8286835
:10304000C005F7D42078000729D57348616964303A
:1030500000298046016811D041F001010160FEF7AE
:10306000F9FD064605E000BFFEF7F4FD801B0228CF
:1030700089D8D8F800008007F6D510E021F00101CA
:103080000160FEF7E7FD064605E000BFFEF7E2FD42
:10309000801B022872D8D8F800008007F6D4207868
:1030A000800623D5A0690028286810D040F48050FD
:1030B0002860FEF7CFFD064605E0E6E0FEF7CAFD14
:1030C000801B02285AD828688004F7D50EE020F427
:1030D00080502860FEF7BEFD064604E0FEF7BAFD0C
:1030E000801B02284AD828688004F7D4207840073B
:1030F0004FD5DFF82881D8F8001041F48071C8F866
:103100000010FEF7A7FD064605E000BFFEF7A2FD92
:10311000801B642832D8D8F80000C005F6D53E4E92
:10312000A068603601280AD008B1052813D030689D
:1031300020F001003060306820F0040002E03068C8
:1031400040F001003060A06841F2883A90B1FEF78B
:1031500081FD80460AE0306840F004003060EEE710
:10316000FEF778FDA0EB0801514507D830688007CD
:10317000F6D50EE0FEF76EFD804607E084E000BF66
:10318000FEF768FDA0EB080151457DD83068800747
:10319000F6D4606AF0B3D9F80010C1F3C201032974
:1031A00073D00228286820F08070286003D0FEF7D2
:1031B00051FD044680E0FEF74DFD064605E000BFE8
:1031C000FEF748FD801B022873D828688001F7D4D9
:1031D000E26A40F2F331386854F8283F884340EA05
:1031E000021018433860217B4FF4FE0C22894FF007
:1031F000FE47208A4902084B521E267DA1F5007128
:1032000089B2401EC2F3080220331143761E0CEA35
:10321000004005E053E00000104402580048025806
:10322000014307EA0662181F114319601A1D01685D
:1032300021F00101016011684FF6F876236AB1436D
:1032400041EAC30111600168A26921F00C01114338
:1032500001600168E26921F0020111430160016827
:1032600041F480310160016841F40031016001687E
:1032700041F480210160016841F00101016028688A
:1032800040F08070286001E013E01AE0FEF7E2FCF5
:10329000044604E0FEF7DEFC001B022809D828687B
:1032A0008001F7D50BE000BFFEF7D4FC001B02281D
:1032B00002D90320BDE8F09F28688001F4D40020E3
:1032C000F8E70120F6E7000003490A6822F46002EB
:1032D00002430A607047000004040058401EB0F129
:1032E000807F10B501D3012010BD4FF0E024606154
:1032F0000F21601701F0F4FC0020A061072121617B
:1033000010BD10B5044690F87C0001281BD0242085
:10331000012184F87C10C206C4F88000206801688E
:10332000036841F0005123F00103036062662068E6
:103330000160204600F08EFD2021C4F8801000209E
:1033400084F87C0010BD022010BD70B5044690F8D2
:103350007C0001281DD0012284F87C202420C4F8A0
:10336000800020680568026822F00102026020687F
:10337000826822F060620A438260204600F06AFDA3
:103380002268202100201560C4F8801084F87C0099
:1033900070BD022070BD70B5044690F87C00012815
:1033A0001DD0012284F87C202420C4F880002068ED
:1033B0000568026822F0010202602068826822F03B
:1033C00060420A438260204600F044FD22682021CA
:1033D00000201560C4F8801084F87C0070BD0220C5
:1033E00070BD10B5040003D0D4F8800010B107E020
:1033F000012010BD002084F87C00204600F026F853
:103400002420C4F880002068016821F001010160D7
:10341000204600F0E5FD0128EBD0A06A10B120465F
:1034200000F04AFD2068416821F490414160206825
:10343000816821F02A0181602068016841F0010162
:1034400001602046BDE8104000F09ABD10B586B07E
:10345000044614216846FCF78DFF12492068884213
:103460001ED11148016841F010010160006800F0B0
:10347000100005900C481038016841F0010101600E
:1034800000680221002200F00100059003230724B8
:103490004FF4C0608DE81F0004486946FEF7D6FA75
:1034A00006B010BD00100140F04402580000025860
:1034B0002DE9F8430446D0F880001F4616460D4615
:1034C000202852D1DDB1D6B194F87C0001284CD02F
:1034D000012284F87C2021214FF00008C4F8888064
:1034E000C4F880101834FEF7B5FB814654F8100C70
:1034F000A687E687183CB0F5805F03D004E0012082
:10350000BDE8F883206910B12E46002510E00026A2
:103510000EE08021204601F06BFBB8B9C6B116F869
:10352000010B21688862B4F85600401EA4F85600CA
:10353000B4F856004B464FF0000200970028E8D13F
:103540004FF04001204601F053FB38B10320D7E78C
:1035500035F8020B2168C0F30800E3E72021C4F826
:103560008010002084F87C80CAE70220C8E7FEE7CC
:1035700038B504466A46002000900121636920683E
:10358000984700286FF0040525DB63690121206856
:103590006A46984700281EDB0098400701D40120A6
:1035A00038BD6369002120686A469847002812DB0D
:1035B0000098C10408D44FF4045181431CD0810405
:1035C0001CD4C0051CD415E063691F2120686A461D
:1035D0009847002801DA284638BD0098C10401D474
:1035E000062038BDC0F38200062805D0022805D089
:1035F000052805D0052038BD022038BD032038BD80
:10360000042038BD2DE9F84304460020009006460A
:1036100060680025B8BBA06800B18047202020600A
:103620006FF00407636912216A4630469847002804
:1036300001DA3D4607E0009800F01F00B04202D1D9
:103640000025266002E0761C1F2EEBD920681F287B
:1036500002D96FF002053BE045BB236900214FF41E
:1036600000429847002824DB6369002120686A46ED
:10367000984700281BDBA06980474FF4FA7806467C
:103680006FF001090EE017E0A0698047801B4045FC
:1036900007D86369002120686A469847002801DA44
:1036A00005E04D4600980004EED42DB110E03D46F3
:1036B0000EE06FF003050BE0A06980474FF4FA6756
:1036C0000646A0698047801BB842FAD90120606095
:1036D0002846BDE8F88388B1CA687AB18A686AB1B9
:1036E0000A695AB10A6882604A68C260CA6842615F
:1036F0008A68026109698161002070474FF0FF30DC
:10370000704700007FB50024009401940294039454
:10371000FEF728FB07208DF808008DF80C400125E6
:103720008DF8094003268DF80D40684616498DF83E
:1037300000508DF80A408DF80E408DF8014001913F
:103740008DF80B608DF80F50FEF7DEFA0D218DF825
:1037500008108DF80C408DF809408DF80D400B488D
:103760008DF800508DF80A408DF80E508DF80150FC
:10377000019068468DF80B608DF80F40FEF7C4FA93
:103780000420FEF7FDFA7FBD000004300040043045
:10379000114808B5016841F080010160016801F03D
:1037A00080010091016841F004010160016801F0AD
:1037B00004010091016841F001010160016801F01C
:1037C00001010091016841F040010160006800F0D2
:1037D0004000009008BD0000E0440258FEB5394C9E
:1037E000C022A823251D012022701E266370FF2100
:1037F000A0700027E6702E1D29706970A970EF7007
:1038000032707370B070F07003F0AEFD2068E17834
:103810002D4A90FA80FC2D4B90FA80FE00BA0C06DF
:103820000CF47F4C084344EA0C240EF47F0CA5F101
:10383000100144EA1C2444EA106008602868E97812
:1038400090FA80FC05BA00BA0C06084305F47F45DF
:103850000CF47F0CA6F1100144EA052444EA1C2470
:1038600044EA106008603068F17805BA06BA00BA18
:103870000C060843134905F47F45091F06F47F062B
:1038800044EA052444EA162444EA106008600097DC
:10389000CDE901320A1F0E480B46083904F052FAEE
:1038A0000B4804F0F3FA0A4890F82B004007084848
:1038B00003D5BDE8FE4004F03CBBBDE8FE4004F08B
:1038C000EBBA000050000024A15C0008C55E0008AF
:1038D000F8010024034810B502F038FBBDE81040A1
:1038E00005F05EBCF80100241848002110B5164C04
:1038F0000C224FF4E1330460C0E90131C160C0E93A
:1039000004128161C161016241628162FFF769FD58
:1039100008B1FDF7FFF80D480021FFF73CFD08B1A5
:10392000FDF7F8F809480021FFF70FFD08B1FDF792
:10393000F1F80648FFF7E5FC002803D0BDE8104089
:10394000FDF7E8B810BD000000100140B8030024E6
:10395000FEE77047704700002DE9F047454D0446EB
:1039600089464FF0000A2868C04380070AD0414EBC
:10397000283E306820F080603060FEF76BF9074623
:10398000B04608E00120BDE8F08700BFFEF762F90D
:10399000C01B022867D8D8F800000001F6D42068C0
:1039A00029684FF4FE0721F47C313E0241EA0030E1
:1039B0002860207AA389B4F804C040022D4D2D4917
:1039C0005B1E227CACF1010C1035091DA0F50070C6
:1039D00080B2521ECCF3080C07EA034340EA0C0005
:1039E000184306EA0262104328600868626920F002
:1039F000C000104308600A68A06922F02002024358
:103A00000A60281D0A6822F010020A6002684FF658
:103A1000F873E4699A4342EAC40202600868B9F1A3
:103A2000000F40F010020A6011D00868B9F1010FD0
:103A300011D040F400100860D8F80000444640F06F
:103A40008060C8F80000FEF705F905460DE008683B
:103A500040F40020EFE740F48010ECE7FEF7FAF8BE
:103A6000401B022801D903208DE720680001F5D50D
:103A7000504688E7284402582DE9F047454D044652
:103A800089464FF0000A2868C04380070AD0414E9B
:103A9000283E306820F080503060FEF7DBF80746A3
:103AA000B04608E00120BDE8F08700BFFEF7D2F87D
:103AB000C01B022867D8D8F800008000F6D4208800
:103AC00029684FF4FE0721F07C713E0241EA005064
:103AD0002860207AA389B4F804C040022D4D2D49F6
:103AE0005B1E227CACF1010C1835091DA0F500709D
:103AF00080B2521ECCF3080C07EA034340EA0C00E4
:103B0000184306EA0262104328600868626920F4DC
:103B10004060104308600A68A06922F40072024302
:103B20000A60281D0A6822F480720A6002684FF653
:103B3000F873E4699A4342EAC40202600868B9F182
:103B4000000F40F480720A6011D00868B9F1010FCB
:103B500011D040F080700860D8F80000444640F072
:103B60008050C8F80000FEF775F805460DE00868BB
:103B700040F48000EFE740F40000ECE7FEF76AF85D
:103B8000401B022801D903208DE720688000F5D56D
:103B9000504688E7284402582022BFF34F8F064B37
:103BA00002E0891A186010440029FADCBFF34F8F35
:103BB000BFF36F8F704700005CEF00E0124988424E
:103BC00001D2002070471149884201D2012070477C
:103BD0000F49884201D2022070470E49884201D223
:103BE000032070470C49884201D2042070470B49DA
:103BF000884201D2052070470949884201D2062037
:103C00007047072070470000000002080000040809
:103C1000000006080000080800000A0800000C0860
:103C200000000E082DE9F04F87B04FF0000905465F
:103C300016468A46CDF814900068B0F1006F58D34C
:103C4000800756D1FDF7E0FE2C684CF2503B2A4825
:103C500004EB8606844235D336E02068401C2CD025
:103C600001224F462046CDE90092FFF7A7FF202111
:103C700002906846CDE9032105A9FDF7C9FD18BBEF
:103C80001E480760BFF34F8F001F43F6FF780068A0
:103C90001B4BC0F34E31C0F3C90208EA411710466E
:103CA00047EA807CC3F800C0401EF9D2491EF4D216
:103CB000BFF34F8FBFF36F8F00E0241D58460121E3
:103CC000FCF794FFB442C8D301215846FCF78EFF9D
:103CD00050B10CE001205246FDF73CFE38B928688F
:103CE0000AF1200A203028602968B142F2D3FDF79A
:103CF00019FE07B0BDE8F08F0000F01F84ED00E072
:103D000074EF00E07047FDF7ABBF000070B5CCB0BA
:103D10004C212FA8FCF72EFB202142A8FCF72AFB00
:103D2000BC216846FCF726FB0220FEF789F82048F4
:103D300000242049026842F44042026002680A6896
:103D400042F001020A60096801F001014A9101682C
:103D50008904FCD50DF1E40C0521C0220220389025
:103D60008CE807003C9008263D90C3033E90012557
:103D7000CDE93F6441942FA8CDE92F53FFF748F8D0
:103D800040203F210301CDE945600322CDE94703EF
:103D900042AB499042A883E816000421FEF740FE9A
:103DA000009568461E94FEF7DFF94CB070BD000028
:103DB000184802582C040058214A30B5214914688B
:103DC0000020204B44F47004146010330A681E4D28
:103DD00042F001020A6018600A681A4B2A400A6021
:103DE00018331C1D251D174A186028322060131D2A
:103DF00028601C1D251D10602A1D1860131D2060E1
:103E00001C1D2860251D10601860206028600A684D
:103E10000C4B0E4C22F4802260330A60186020683C
:103E20006FF30F00B0F1005F03D209490120C1F820
:103E300008014FF0006002498039086030BD000081
:103E400088ED00E0004402587FEDF6EA0010005CC7
:103E5000008000513FB514A1D1E9002314A1CDE9A0
:103E60000023D1E90021CDE90221416EB9B10168F9
:103E700002AC8A688968C2F34262490F1DF801509A
:103E8000615CED00B5FBF1F1A0F86A101DF80210BD
:103E9000A25CC900B1FBF2F1A0F868103FBD01219E
:103EA000A0F86A10F8E70000010101030701000013
:103EB000080402040801010190F82810C90706D07F
:103EC0000168C36A4A6822F400321A434A6090F8D3
:103ED0002810890706D50168036B4A6822F48032EE
:103EE0001A434A6090F82810490706D50168436BC9
:103EF0004A6822F480221A434A6090F82810090781
:103F000006D50168836B4A6822F400421A434A606E
:103F100090F82810C90606D50168C36B8A6822F498
:103F200080521A438A6090F82810890606D50168E5
:103F3000036C8A6822F400521A438A6090F82810B1
:103F4000490611D50168436C4A6822F480121A436D
:103F50004A60416CB1F5801F06D10168836C4A68E4
:103F600022F4C0021A434A6090F82810090606D5C8
:103F70000168C26C486820F4002010434860704714
:103F8000F8B500260446C0F88860FDF763FE0546D4
:103F900020686FF07E470068000708D500222B4696
:103FA0004FF400112046009700F022FE60B920680F
:103FB000006840070AD500222B464FF480012046B6
:103FC000009700F015FE08B10320F8BD2020C4F8CA
:103FD000800084F87C60C4F884000020F8BD0000F4
:103FE0002DE9F04F04468068F94E87B02168D4E986
:103FF0000457E269636E28430D6817433843F54A56
:1040000003434FF0000835401D430D602068E3680E
:10401000416821F44051194341602368A0699342EB
:1040200001D0216A08439D68EB4FEC4EEC493D40BE
:1040300005439D602068656AC36A23F00F032B4324
:10404000C3622068B0420ED1096801F03801182916
:1040500073D047DCB9B3082979D010296FD178E043
:1040600028297ED17BE0DF4B984209D1096801F015
:104070000701062975D2DFE801F0546A6C6E707290
:10408000D94B984209D1096801F00701062968D285
:10409000DFE801F0475D5F616365D44B984209D169
:1040A000096801F0070106295BD2DFE801F03A5008
:1040B00052545658CE4B98420BD1096801F0070173
:1040C00006294ED200E010E0DFE801F02B41434525
:1040D0004749C84B98420AD1096801F038011829AC
:1040E00039D0B7DD2029BBD137E001273AE0C24BF8
:1040F000984209D1096801F00701062931D2DFE8A9
:1041000001F01026282A2C2EBC4B98420BD10968AE
:1041100001F00701062924D2DFE801F003191B1D75
:104120001F2100271EE090421BD1AD49091D0968DF
:1041300001F00701062914D202E00CE007E010E0CC
:10414000DFE801F0030507090B0D02270AE0042749
:1041500008E0082706E0102704E0202702E04027B7
:1041600000E08027DFF898A2DFF898B290424FF481
:1041700080754FF000097AD1102F51D006DC022F44
:1041800009D0042F27D0082F72D12DE0202F70D016
:10419000402F6DD1F0E0FDF791FE0146606A1FE00F
:1041A000012827D0022827D0032827D0042827D089
:1041B000052827D0062827D0072827D0082827D069
:1041C000092827D00A2827D00B2827D00AE000BFCB
:1041D000B1FBF0F07EE06846FDF782FE606A01996F
:1041E0000028DDD10120F3E703A8FDF71BFF606A7B
:1041F0000499F5E70220EBE70420E9E70620E7E76A
:104200000820E5E70A20E3E70C20E1E71020DFE7DC
:104210002020DDE74020DBE78020D9E72846D7E7EC
:10422000DBF8000059468006606A39D50968C1F399
:10423000C1012AFA01F2A8B101281BD002281BD023
:1042400003281BD004281BD005281BD006281BD010
:1042500007281BD008281BD009281BD00A281BD0F0
:104260000B281BD05FF00100B2FBF0F032E033E22C
:10427000A2E050E00220F7E70420F5E70620F3E78C
:104280000820F1E70A20EFE70C20EDE71020EBE72C
:104290002020E9E74020E7E78020E5E72846E3E73C
:1042A000A8B1012821D0022821D0032821D0042838
:1042B00021D0052821D0062821D0072821D0082880
:1042C00021D0092821D00A2821D00B2821D0012073
:1042D000BAFBF0F000286ED0666806EB460181421A
:1042E0006AD8B0EB063F67D89DE00220F0E70420D3
:1042F000EEE70620ECE70820EAE70A20E8E70C20D2
:10430000E6E71020E4E72020E2E74020E0E7802015
:10431000DEE72846DCE7606AA8B1012816D002284B
:1043200016D0032816D0042816D0052816D0062843
:1043300016D0072816D0082816D0092816D00A2823
:1043400016D00B2816D001202F4941E70220FBE7A9
:104350000420F9E70620F7E70820F5E70A20F3E74D
:104360000C20F1E71020EFE72020EDE74020EBE7FD
:104370008020E9E72846E7E7606AA8B1012818D05D
:1043800002281AD003281AD004281AD005281AD0D7
:1043900006281AD0072839D0082839D0092839D05A
:1043A0000A2839D00B2839D05FF001004FF40041C2
:1043B0000EE70220FAE77CE232E00420F6E706206E
:1043C000F4E70820F2E70A20F0E70C20EEE700000F
:1043D000F369FFCF000C0058FFF4FF1100100140FB
:1043E000544402580044004000480040004C004043
:1043F000005000400014014000780040007C004064
:104400000090D0030044025800093D001020CDE781
:104410002020CBE74020C9E78020C7E72846C5E732
:104420004FF0010845E2102F7FD023DC022F4ED041
:10443000042F75D0082FF3D103A8FDF7F3FD0499DD
:10444000606AA8B1012846D0022846D0032846D089
:10445000042846D0052846D0062846D0072846D04E
:10446000082846D0092846D00A2846D00B2845D02F
:10447000012543E0202F7DD0402FD1D1606AA8B123
:10448000012878D0022877D0032876D0042875D068
:10449000052874D0062873D0072872D0082871D058
:1044A000092870D00A286FD00B2800D001254F466C
:1044B00000232A464FF400400021FBF711FF02467B
:1044C0007008130E1202101843EA01216AE0FDF78A
:1044D000F5FC0146B4E7022510E004250EE00625B0
:1044E0000CE008250AE00A2508E00C2506E0102566
:1044F00004E0202502E0402500E080254E46002310
:104500002A4608461946FBF7EBFE626809020302D9
:1045100041EA106150081818714145E005E0FFE7D5
:104520006846FDF7DDFC01998AE7DBF80010584684
:10453000890656D50068C0F3C1002AFA00F1606A06
:10454000A8B1012839D0022839D0032839D004284D
:1045500039D0052839D0062839D0072839D008287D
:1045600039D0092839D00A2839D00B2800D00125A4
:104570002A460AE067E099E09AE09BE09CE09DE033
:104580009EE09FE0A0E0A1E0A2E000234F460846A5
:104590001946FBF7A5FE09020346720800028018BF
:1045A00041EA1361324679410023FBF799FEFA494B
:1045B000A0F540728A426ED932E70225D8E7042579
:1045C000D6E70625D4E70825D2E70A25D0E70C254B
:1045D000CEE71025CCE72025CAE74025C8E780258F
:1045E000C6E7606AA8B1012819D0022819D00328AB
:1045F00019D0042819D0052819D0062819D0072861
:1046000019D0082819D0092819D00A2819D00B2840
:1046100000D001254F4600232A4650464CE702258C
:10462000F8E70425F6E70625F4E70825F2E70A256A
:10463000F0E70C25EEE71025ECE72025EAE740251A
:10464000E8E78025E6E7606AA8B1012819D00228CA
:1046500019D0032819D0042819D0052819D0062804
:104660001AD007281AD008281AD009281AD00A28E0
:104670001AD00B2800D00125C84800234F462A46EF
:104680001AE70225F8E70425F6E70625F4E70825EA
:10469000F2E70A25F0E71DE00C25EDE71025EBE732
:1046A0002025E9E74025E7E78025E5E70225FEE646
:1046B0000425FCE60625FAE60825F8E60A25F6E6CE
:1046C0000C25F4E61025F2E62025F0E64025EEE67E
:1046D0008025ECE62168EBE0E0694FF400414FF6FD
:1046E000EF7688426FD1082F65D00BDC6FB3012FB6
:1046F0005CD0042F7FF460AF6846FDF7F1FB606A81
:1047000001995DE0102F5FD0202F7DD0402FF1D197
:10471000606AA8B1012878D0022877D0032876D023
:10472000042875D0052874D0062873D0072872D0C5
:10473000082871D0092870D00A286FD00B2800D023
:1047400001256068B1FBF5F1A0E0FEF7A1FA2FE0CA
:10475000012815D0022815D0032815D0042815D01B
:10476000052815D0062815D0072815D0082815D0FB
:10477000092815D00A2815D00B2814D0012512E0DD
:10478000022510E004250EE006250CE008250AE0CD
:104790000A2508E00C2506E0102504E0202502E0AB
:1047A000402500E08025B1FBF5F13EE0FEF782FAFE
:1047B0000146606A04E003A8FDF734FC606A0499CE
:1047C0000028DBD0C4E7D8E0DBF8000059468006BB
:1047D000606A40D50968C1F3C1012AFA01F208B341
:1047E000012824D0022824D0032824D0042824D04F
:1047F000052824D0062824D0072824D0082824D02F
:10480000092824D00A280AE074E0A2E0A3E0A4E08A
:10481000A5E0A6E0A7E0A8E0A9E0AAE0ABE018D0F8
:104820000B2800D00125B2FBF5F160682EE00225CF
:10483000F9E70425F7E70625F5E70825F3E70A2554
:10484000F1E70C25EFE71025EDE72025EBE7402504
:10485000E9E78025E7E7A8B1012837D0022837D05B
:10486000032837D0042837D0052837D0062837D07A
:10487000072837D0082837D0092837D00A2837D05A
:104880000B2800D001256068BAFBF5F1490001EB67
:104890005001B1FBF0F080B2A0F11001B1423FF63F
:1048A0008BAE4FF6F0732168C0F3420218401043FC
:1048B000C8600121A4F86A104046A4F86810C4F842
:1048C0006C90C4F8709007B0BDE8F08F0225DAE76D
:1048D0000425D8E70625D6E70825D4E70A25D2E738
:1048E0000C25D0E71025CEE72025CCE74025CAE7E8
:1048F0008025C8E7606AA8B1012816D0022816D022
:10490000032816D0042816D0052816D0062816D05D
:10491000072816D0082816D0092816D00A2816D03D
:104920000B2800D001251D490BE70225FBE70425D4
:10493000F9E70625F7E70825F5E70A25F3E70C254B
:10494000F1E71025EFE72025EDE74025EBE780258F
:10495000E9E70225F5E60425F3E60625F1E6082554
:10496000EFE60A25EDE60C25EBE61025E9E6202525
:10497000E7E64025E5E68025E3E6082F6AD00FDC70
:104980008FB3012F61D0042F7FF416AE6846FDF778
:10499000A7FA606A019962E0FFFC0F0000093D0080
:1049A000102F5FD0202F7DD0402FEDD1606AA8B1AD
:1049B000012878D0022877D0032876D0042875D033
:1049C000052874D0062873D0072872D0082871D023
:1049D000092870D00A286FD00B2800D00125606804
:1049E000B1FBF5F1A0E0FFE7FEF752F92FE0012857
:1049F00015D0022815D0032815D0042815D0052875
:104A000015D0062815D0072815D0082815D0092854
:104A100015D00A2815D00B2814D0012512E0022544
:104A200010E004250EE006250CE008250AE00A2522
:104A300008E00C2506E0102504E0202502E04025D2
:104A400000E08025B1FBF5F13DE0FEF733F90146CA
:104A5000606A04E003A8FDF7E5FA606A049900289B
:104A6000DBD0C4E7DBF8000059468006606A40D519
:104A70000968C1F3C1012AFA01F208B3012824D060
:104A8000022824D0032824D0042824D0052824D0A8
:104A9000062824D0072824D0082824D0092824D088
:104AA0000A280AE05FE08DE08EE08FE090E091E080
:104AB00092E093E094E095E096E018D00B2800D0C7
:104AC0000125B2FBF5F160682EE00225F9E7042527
:104AD000F7E70625F5E70825F3E70A25F1E70C25B2
:104AE000EFE71025EDE72025EBE74025E9E78025F6
:104AF000E7E7A8B1012822D0022822D0032822D03B
:104B0000042822D0052822D0062822D0072822D027
:104B1000082822D0092822D00A2822D00B2800D029
:104B200001256068BAFBF5F101EB5001B1FBF0F033
:104B300080B2A0F11001B1427FF6CCAD70E4022545
:104B4000EFE70425EDE70625EBE70825E9E70A2569
:104B5000E7E70C25E5E71025E3E72025E1E7402519
:104B6000DFE78025DDE7606AA8B1012816D00228BA
:104B700016D0032816D0042816D0052816D00628EB
:104B800016D0072816D0082816D0092816D00A28CB
:104B900016D00B2800D00125144920E70225FBE799
:104BA0000425F9E70625F7E70825F5E70A25F3E7E1
:104BB0000C25F1E71025EFE72025EDE74025EBE791
:104BC0008025E9E702250AE7042508E7062506E728
:104BD000082504E70A2502E70C2500E71025FEE674
:104BE0002025FCE64025FAE68025F8E600093D0090
:104BF0002DE9F0479A4617460E460446089D4FF0A9
:104C000000094FF0200839E0681C37D0FDF722F882
:104C1000A0EB0A00A84222D80DB32068016849071A
:104C20002CD5C069C043000528D423684FF4006127
:104C3000196221680B6823F4D0730B6021688B68BC
:104C400023F001038B60C4F88080C4F88480C4F82A
:104C5000888000BF032084F87C90BDE8F08721683D
:104C60000B6823F4D0730B6021688B6823F0010379
:104C70008B60C4F88080C4F88480EBE72068C0694A
:104C800036EA000004D00020B842BDD00020E4E79E
:104C90000120F9E7FEE700000FB4054B10B503A9AA
:104CA000044A029800F03CF810BC5DF814FB0000C8
:104CB000715F00082C0100240FB4084B10B504A943
:104CC00002AA039800F02CF8044602A9002000F084
:104CD00087F9204610BC5DF814FB0000E14F000886
:104CE000090700284FEA116104DB00F1E02080F899
:104CF0000014704700F00F0000F1E02080F8141D50
:104D0000704702E008C8121F08C1002AFAD1704794
:104D10007047002001E001C1121F002AFBD170473B
:104D20002DE9FF4F8DB09B460F460446002606E056
:104D300025280BD05A460F999047641C761C207882
:104D40000028F5D111B03046BDE8F08F0025A84607
:104D50000122984900E0054314F8013F203B02FA84
:104D600003F00842F7D120782E2817D114F8010F4C
:104D700045F004052A280ED06FF02F022078A0F10C
:104D8000300109290AD808EB880102EB410100EB48
:104D90000108641CF2E757F8048B641C20786C2827
:104DA0000DD004DC4C2812D06A2811D104E07428FC
:104DB0000DD07A280CD10AE045F4001507E061789F
:104DC00045F48015814202D1641C05F58015641CF0
:104DD0002278692A45D008DC002AB3D0582A69D045
:104DE000632A10D0642A08D13BE0702A67D0732A66
:104DF00013D0752A5CD0782A5CD010465A460F9999
:104E00009047761CD3E017F8040B8DF800000020C3
:104E10008DF80100E946012003E057F8049B4FF0AC
:104E2000FF3069074FF0000501D40AE06D1C4545CD
:104E30000DDA8542FADB19F805100029F6D106E0F3
:104E40006D1C8542FCDB19F805100029F8D12E44B1
:104E500004E019F8010B5A460F9990476D1EF8D2DD
:104E6000A5E00A200021CDE90801C5F3025002287F
:104E70000DD001CFC117031E71F100030DDA4FF001
:104E8000000CD0EB0C006CEB01012D2308E0FF1DA2
:104E900027F00707F7E80201EDE72B0504D52B23E0
:104EA0008DF8283001233BE0EB0739D02023F7E7CA
:104EB0000A2000E010200021CDE9080107E01020C1
:104EC000002145F00405CDE908014FF00808C5F3BD
:104ED000025002280FD001CF00214FF0000A2B070B
:104EE0001FD5702A0DD0DDE908C38CF0100C5CEAE8
:104EF000030C0CD015E0FF1D27F00707F7E80201AF
:104F0000EBE740228DF828204FF0010A0BE050EA31
:104F1000010306D030238DF828308DF82920022394
:104F20009A46582A04D024A20DF120090B9209E0D8
:104F300026A2F9E7DDE90823FBF7D2F90B9B9B5C7E
:104F400009F8013D50EA0102F4D1ADEB090020302F
:104F50000890680701D44FF001080899884502DDE0
:104F6000A8EB010000E000208046002506E00AA82A
:104F70005A46405D0F9990476D1C761C5545F6DBEF
:104F800004E030205A460F999047761CB8F1000192
:104F9000A8F10108F5DC05E019F8010B5A460F9954
:104FA0009047761C0899481E08900029F4DC641C80
:104FB000C5E6000009280100303132333435363778
:104FC0003839616263646566000000003031323355
:104FD00034353637383941424344454600000000F5
:104FE0000A68531C0B6010707047000010B504462F
:104FF0004068804720682246BDE81040014904F01F
:10500000FDB80000ED4F000870B50C460546880756
:1050100006D006A34FF4CE7210A118A0FFF73CFEF5
:10502000A86800682060A868046070BD2E2E2F4D0F
:105030006964646C6577617265732F546869726422
:105040005F50617274792F4C7749502F7372632FC0
:10505000636F72652F6D656D702E63006D656D7089
:105060005F667265653A206D656D2070726F706560
:10507000726C7920616C69676E6564004173736559
:105080007274696F6E2022257322206661696C65D7
:1050900064206174206C696E6520256420696E202F
:1050A00025730A0010B580680468002C0CD02168B4
:1050B000A207016006D005A34FF4A4720FA118A0A7
:1050C000FFF7EAFD204610BD002010BD2E2E2F4D0B
:1050D0006964646C6577617265732F546869726482
:1050E0005F50617274792F4C7749502F7372632F20
:1050F000636F72652F6D656D702E63006D656D70E9
:105100005F6D616C6C6F633A206D656D70207072BD
:105110006F7065726C7920616C69676E6564000000
:10512000417373657274696F6E2022257322206645
:1051300061696C6564206174206C696E652025640A
:1051400020696E2025730A0070B50A4D00240646BA
:1051500004EB440005EBC000017D29B18068B0423A
:1051600002D1204600F034F9641CE4B20A2CEFD3DB
:1051700070BD0000883900242DE9F74F84B04FF04E
:105180000A0B00240646DA465F46D946029401948B
:10519000009404EB44004F490A2F039001EBC00830
:1051A00098F8145016D0002D24D0012D08D0022DCF
:1051B00006D249A340F2251255A165A0FFF76CFD68
:1051C00066B13168D8F80400814207D160B207B0F7
:1051D000BDE8F08F002DE8D167B20BE0012D17D0AC
:1051E000022D07D3B8F812000099884202D34FFA73
:1051F00084FA0090641CE4B20A2CCAD30598810793
:105200004FF0FF30E3D40A2F18D01ADAFCB242E094
:105210003048039950F831000028B8F8120006D041
:1052200002998842E6D34FFA84F90290E2E70199A5
:105230008842DFD34FFA84FB0190DBE70599C90769
:10524000C5D0BAF10A0F0FDA0AF0FF04214804EBC7
:10525000440150F8310090B11FA340F26F1246A1F3
:105260003BA0FFF719FD0AE0BBF10A0F02DA0BF0D1
:10527000FF0404E0B9F10A0FA9DA09F0FF040A2CCF
:1052800006D315A340F2811241A131A0FFF704FD1E
:10529000204600F09DF80A2C06D30FA340F2851299
:1052A0003BA12BA0FFF7F8FC0A4804EB440100EBFC
:1052B000C105287D30B108A34FF4C37239A124A0E1
:1052C000FFF7EAFC0EB130686860002160B26982C5
:1052D0007DE70000883900242E2E2F4D6964646C10
:1052E0006577617265732F54686972645F5061728B
:1052F00074792F4C7749502F7372632F636F7265E7
:105300002F697076342F6574686172702E630000A7
:105310007374617465203D3D204554484152505F8F
:1053200053544154455F50454E44494E47207C7C80
:10533000207374617465203E3D20455448415250AD
:105340005F53544154455F535441424C4500000063
:10535000417373657274696F6E2022257322206613
:1053600061696C6564206174206C696E65202564D8
:1053700020696E2025730A006172705F7461626C2F
:10538000655B695D2E71203D3D204E554C4C000003
:1053900069203C204152505F5441424C455F534983
:1053A0005A4500006172705F7461626C655B695D93
:1053B0002E7374617465203D3D2045544841525020
:1053C0005F53544154455F454D505459000000000F
:1053D00070B5074C00EB4005002654F8350018B1B5
:1053E00003F012FA44F8356004EBC500067570BD91
:1053F000883900242DE9F0430D00074685B009D017
:105400007C684FF480782088404539D1207906287F
:1054100036D109E01CA34FF4227229A12CA0FFF77A
:105420003BFC05B0BDE8F0836079042828D1608892
:10543000082825D1D4F80E0004906868A16920B12D
:10544000814202D10126334601E00026022328468C
:1054500004F1080204A9914600F094FBE08840455D
:105460000ED16EB10222284604AB291DCDE90232CD
:10547000CDE9001905F125034A46194600F084FAE2
:10548000384603F0C1F9CCE72E2E2F4D6964646CC9
:105490006577617265732F54686972645F506172D9
:1054A00074792F4C7749502F7372632F636F726535
:1054B0002F697076342F6574686172702E630000F6
:1054C0006E6574696620213D204E554C4C000000ED
:1054D000417373657274696F6E2022257322206692
:1054E00061696C6564206174206C696E6520256457
:1054F00020696E2025730A00FEB5040015460E468D
:1055000006D141A340F21B324DA151A0FFF7C4FBCD
:1055100036B93DA34FF4477257A14DA0FFF7BCFB2E
:1055200035B939A340F21D3256A149A0FFF7B4FBAB
:105530002868214600F002FF08B1564B3CE028687D
:10554000C0F303110E2922D0D4E901210A40014001
:10555000914208D080B2A0F57E41A93903D0E0681D
:10556000A0B304F10C054C4A4C49107800EB400301
:1055700001EBC3031F7D022F2CD32F685B689F4272
:1055800028D102463146204600F08AF8FEBD0122AD
:105590008DF8042000208DF805005E218DF806109E
:1055A000687801AB00F07F008DF80700A8788DF8CF
:1055B0000800E8788DF809004FF4006004F1250236
:1055C00031460090204600F001FCFEBDFFE76FF081
:1055D0000300FAE75FF0000000EB400301EBC303B8
:1055E0001F7D022F06D32F685B689F4202D1C0B295
:1055F0001070C6E7401C40B20A28EDDB324629464F
:10560000204600F0D5F8E0E72E2E2F4D6964646C3B
:105610006577617265732F54686972645F50617257
:1056200074792F4C7749502F7372632F636F7265B3
:105630002F697076342F6574686172702E63000074
:105640006E6574696620213D204E554C4C0000006B
:10565000417373657274696F6E2022257322206610
:1056600061696C6564206174206C696E65202564D5
:1056700020696E2025730A007120213D204E554C73
:105680004C00000069706164647220213D204E5519
:105690004C4C0000CCE10008200100248839002493
:1056A0002DE9F8431546884606461C4802EB45019D
:1056B00000EBC104207D022806D219A34FF43B72EF
:1056C00025A131A0FFF7E8FA144A05EB4501207D3A
:1056D00002EBC1050C35022813D1608A0327B0F50F
:1056E0008E7F04D9211D304600F006FA07E0B0F5A0
:1056F000877F06D3211D2A46304600F003FA00B901
:1057000027754FF4006006F125022B4641460090B4
:10571000304600F05BFBBDE8F883000088390024C8
:105720002E2E2F4D6964646C6577617265732F54FA
:10573000686972645F50617274792F4C7749502F99
:105740007372632F636F72652F697076342F65747F
:10575000686172702E6300006172705F7461626CC8
:10576000655B6172705F6964785D2E7374617465E6
:10577000203E3D204554484152505F5354415445CA
:105780005F535441424C4500417373657274696FB5
:105790006E2022257322206661696C656420617425
:1057A000206C696E6520256420696E2025730A00CF
:1057B0002DE9FC5F82461446253001900868884632
:1057C0004FF0FF364FF0000B514600F0B7FD0028B8
:1057D00028D1D8F80000C0F303110E2922D0B8F167
:1057E000000F1FD000281DD0012152464046FFF770
:1057F000C3FC070018D4394907EB470901EBC90579
:10580000287D002812D0012808D0022806D234A30F
:1058100040F2C73240A14AA0FFF73EFABBF1000FA9
:105820000AD108E06FF00F00BDE8FC9FC5F808A0A2
:105830000121297500E034B94146504600F05CF979
:10584000002C0646F0D0287DDFF8908002280DD38A
:1058500045484FF4006105F10C0307705046019A6A
:105860000091214600F0B2FA064635E0012833D116
:105870004FF47B76254668892989884207D12868B4
:1058800028B117A3324639A12DA0FFF705FA287BCE
:1058900001280ED029890022022002F059FB0500C0
:1058A00018D0214602F02CFE58B1284602F0ACFF79
:1058B00010E02D68002DDED12546204603F0E0F9EA
:1058C00045B158F8390008B102F09EFF002648F8AB
:1058D000395001E04FF0FF363046A5E78839002403
:1058E0002E2E2F4D6964646C6577617265732F5439
:1058F000686972645F50617274792F4C7749502FD8
:105900007372632F636F72652F697076342F6574BD
:10591000686172702E6300006172705F7461626C06
:10592000655B695D2E7374617465203D3D20504553
:105930004E44494E47206F7220535441424C45001B
:10594000417373657274696F6E202225732220661D
:1059500061696C6564206174206C696E65202564E2
:1059600020696E2025730A00200100246E6F2070CC
:1059700061636B65742071756575657320616C6C0E
:105980006F776564210000002DE9FF4F81B09846D4
:1059900006004FF00007DDE90FA9DDF838B006D1A9
:1059A0002BA34FF48B6238A13BA0FFF775F90022BF
:1059B0001C21022002F0CCFA050046D068891C2880
:1059C00006D223A340F263423DA133A0FFF764F95E
:1059D0006C68119801F0C6FCE08096F82400062857
:1059E00006D044491AA32CA040F26A42FFF754F9AA
:1059F000D8F800100623A1604FF48071B8F80400B5
:105A0000A081DAF80020C4F812200822BAF80400B5
:105A1000E082DBF80000C4F80E00D9F80000A061B5
:105A20000420218040F606016280237160713046B7
:105A3000DDE902230091294600F0C8F9284602F06A
:105A4000E3FE384605B0BDE8F08F4FF0FF30F9E7D0
:105A50002E2E2F4D6964646C6577617265732F54C7
:105A6000686972645F50617274792F4C7749502F66
:105A70007372632F636F72652F697076342F65744C
:105A8000686172702E6300006E6574696620213D46
:105A9000204E554C4C000000417373657274696F61
:105AA0006E2022257322206661696C656420617412
:105AB000206C696E6520256420696E2025730A00BC
:105AC000636865636B2074686174206669727374BF
:105AD00020706275662063616E20686F6C6420734D
